:020000041000EA
:10E0000000000220A11F0110CD1D0110DF1F011013
:10E01000E11F0110E31F0110E51F011000000000C7
:10E02000000000000000000000000000E71F0110D9
:10E03000E91F011000000000EB1F0110ED1F01108F
:10E04000F11F0110F31F0110F51F0110F71F011040
:10E05000F91F0110FB1F0110FD1F0110FF1F011010
:10E0600001200110032001100520011007200110DC
:10E07000092001100B2001100D2001100F200110AC
:10E08000112001101320011015200110172001107C
:10E09000192001101B2001101D2001101F2001104C
:10E0A000511D0110591D01102520011027200110BC
:10E0B000292001102B2001102D2001102F200110EC
:10E0C00031200110332001103520011037200110BC
:10E0D000392001103B2001103D2001103F2001108C
:10E0E000412001104320011045200110472001105C
:10E0F000492001104B2001104D2001104F2001102C
:10E1000051200110532001105520011057200110FB
:10E11000592001105B2001105D2001105F200110CB
:10E12000612001106320011065200110672001109B
:10E13000692001106B2001106D2001106F2001106B
:10E14000712001107320011075200110772001103B
:10E15000792001107B2001107D2001107F2001100B
:10E1600081200110832001108520011087200110DB
:10E17000892001108B2001108D2001108F200110AB
:10E18000912001109320011095200110972001107B
:10E19000992001109B2001109D2001109F2001104B
:10E1A000A1200110A3200110A5200110A72001101B
:10E1B000A9200110AB200110AD200110AF200110EB
:10E1C000B1200110B3200110B5200110B7200110BB
:10E1D000B9200110BB200110BD200110BF2001108B
:10E1E000000000000000000000000000000000002F
:10E1F000000000000000000000000000000000001F
:10E2000000488047A11F01100348044B834202D0FD
:10E21000034B03B118477047CC0B0020CC0B0020F8
:10E22000000000000548064B1B1AD90F01EBA301A3
:10E23000491002D0034B03B118477047CC0B0020A4
:10E24000CC0B00200000000010B5064C237843B929
:10E25000FFF7DAFF044B13B10448AFF3008001234A
:10E26000237010BD000C00200000000000B7021059
:10E2700008B5054B1BB105490548AFF30080BDE863
:10E280000840FFF7CFBF00BF00000000040C0020D3
:10E2900000B702102DE9F043294A2A4E2A4F2B4D90
:10E2A0002B4C4FF0040C00EB060E87FB0E384FEAA8
:10E2B000EE73C3EBE85302FB13E34FF0040803EBE8
:10E2C000430E03EB8E032B444FEA932EA4FB0E9ECA
:10E2D0004FEA5E1EB8F1010802FB1E33EFD1CB1AE4
:10E2E000990AA4FB01E1490902FB113101EB060E79
:10E2F0004FEA9E23A4FB03835B0902FB13E34FF069
:10E30000040803EB430E03EB8E032B444FEA932EDA
:10E31000A4FB0E9E4FEA5E1EB8F1010802FB1E33FD
:10E32000EFD1C31A980AA4FB00E04009BCF1010C2C
:10E3300002FB1030B7D107480844C0B2BDE8F083F3
:10E3400000A49A0378563412BFF48323C7AB255137
:10E35000F5832300A7A39A0310B562B61A4C00F008
:10E360003BFE88221948214600F050FE184B2268D7
:10E370009A421CD0174806F04DF8174808F07EFF67
:10E38000164806F047F8164B1B68986809F06EFAB5
:10E3900009A1D1E900010AA3D3E90023C4E90001DE
:10E3A000C4E9022309488822214600F031FEBDE875
:10E3B000104000F0ADBC00BFEFBEADDE02000000BB
:10E3C0002077889921778899400C002000C0071099
:10E3D000EFBEADDEC01C0210CC1C0210E81C021007
:10E3E000980500202DE9F047DFF8DCA0374EDAF879
:10E3F0000430ADF5007DDBB1DFF8D490DFF8D480D8
:10E40000354F0AF104050024484606F003F855F894
:10E41000041F404605F0FEFF384605F0FBFF336859
:10E42000986809F023FADAF804300134A342EBD8F3
:10E43000274DDFF8A880284F08241FE08DF800E161
:10E4400000F06AFC034601336946204612D000F012
:10E450007DFC0346002B28460CDD05F0DBFF009910
:10E46000404605F0D7FF384605F0D4FF336898687A
:10E4700009F0FCF90134E4B2782C13D0A4F11803AC
:10E48000DBB2DFF85CC04FF0010E1E2B40AA7146D4
:10E4900020462CFA03FCD1D81CF0010FCED07444D6
:10E4A000E4B2EBE70F4805F0B5FF0F4808F0E6FED1
:10E4B000094805F0AFFF3368986809F0D7F90020E4
:10E4C0000DF5007DBDE8F087400C00209805002088
:10E4D000EC1C0210F81C0210E81C0210041D0210B3
:10E4E00001000140101D02101C1D02102DE9F04119
:10E4F000244F7B68ADF5007D002B37D03D1D0026F5
:10E500004FF0020803E07B680136B3422ED955F87C
:10E51000040F00F0FFFB012140AA04468DF80081A2
:10E5200000F0FAFB034601336946204623D000F091
:10E530000DFC01301FD0009A2B689A42E3D00236BE
:10E54000114805F067FF114857F8261005F062FFE3
:10E550000F4805F05FFF0F4B1B68986809F086F9BC
:10E560004FF0FF300DF5007DBDE8F08100200DF586
:10E57000007DBDE8F081044805F04CFF064808F036
:10E580007DFEE5E7400C0020241D0210501D021006
:10E59000E81C021098050020301D02102DE9F04FF4
:10E5A000294F7B68ADF5017DA3B3DFF8A080DFF8CC
:10E5B000A090DFF8A0B0DFF8A0A03E1D002556F81F
:10E5C000040F00F0A7FB0323012140AA04468DF8A5
:10E5D000003100F0A1FB034601336946204605F1F6
:10E5E00001051CD000F0B2FB03460133484616D0AB
:10E5F00005F010FF31686A46584605F00BFF50469B
:10E6000005F008FFD8F80030986809F02FF97B680A
:10E61000AB42D4D800200DF5017DBDE8F08F0F4846
:10E6200005F0F8FE0E4808F029FE0B4805F0F2FE52
:10E63000D8F80030986809F019F94FF0FF300DF55F
:10E64000017DBDE8F08F00BF400C00209805002040
:10E65000EC1C0210701D0210E81C0210241D021098
:10E660007C1D021030B5ADF5017D044600F052FB73
:10E67000042340AA012105468DF8003100F04CFB2F
:10E68000013026D06946284600F060FB013020D0DA
:10E69000184805F0BFFE21461748184C05F0BAFE91
:10E6A000174805F0B7FE2368986809F0DFF81148AD
:10E6B00005F0B0FE6946134805F0ACFE104805F0C1
:10E6C000A9FE2368986809F0D1F800200DF5017DB6
:10E6D00030BD0D4805F09EFE0C4808F0CFFD0848FF
:10E6E00005F098FE054B1B68986809F0BFF84FF0DD
:10E6F000FF30EBE7EC1C0210981D0210980500207B
:10E70000E81C0210A41D0210241D0210A81D0210F6
:10E7100010B5002090B004AA10216B46CDE904008A
:10E72000CDE906003C483D4C00F0E6FB3C4805F0D6
:10E7300071FE3C4805F06EFE3B4805F06BFE236819
:10E74000986809F093F8364805F064FE1021684691
:10E7500000F0BAFB344805F05DFE2368986809F0C4
:10E7600085F808AA1021684600F01CFC2C4805F02A
:10E7700051FE2E4805F04EFE2B4805F04BFE236857
:10E78000986809F073F8264805F044FE102108A89F
:10E7900000F09AFB244805F03DFE2368986809F0D4
:10E7A00065F80CAB04AA1021684600F0CFFB1C48AA
:10E7B00005F030FE0CA91E4805F02CFE1A4805F0A5
:10E7C00029FE23681B4C986809F050F8002003F0DC
:10E7D0008BFB204603F0A6FD012003F085FB2046BD
:10E7E00003F0A0FD022003F07FFB204603F09AFD1A
:10E7F000002003F099FB204603F094FD012003F074
:10E8000093FB204603F08EFD022003F08DFB204693
:10E8100003F088FDDAE700BFC41D02109805002050
:10E82000C01C0210D41D0210E81C0210E81D0210CA
:10E83000F81D021020A107002DE9F0412E482F4DB0
:10E840008AB005F0E7FD2E4808F018FD2D4805F0C8
:10E85000E1FD2B68986809F009F8FFF79FFE78B191
:10E86000294805F0D7FD294808F008FD254805F09E
:10E87000D1FD2B6898680AB0BDE8F04108F0F6BFFA
:10E880000446DFF88C80234F23486E4658F8041B5B
:10E89000FFF700FD307057F8040F06F8014F00280D
:10E8A000F4D1154805F0B6FD684608F0E7FC1548B8
:10E8B00005F0B0FD2B68986808F0D8FF174805F000
:10E8C000A9FD1749174805F0A5FD0E4805F0A2FD62
:10E8D0002B68986808F0CAFF134805F09BFD1348A1
:10E8E00008F0CCFC074805F095FD2B68986808F007
:10E8F000BDFFFFF70DFF00BFC01C021098050020F0
:10E90000101E0210E81C0210241D02102C1E021002
:10E91000F420021088210210B6E4FF01EC1C021062
:10E920004C1E0210601E0210101D0210681E021004
:10E9300010B58EB0194801A900F098FA184B019A49
:10E940009A4212D0174805F065FD174808F096FC6A
:10E95000164805F05FFD164B1B6898684FF0FF34B2
:10E9600008F084FF20460EB010BDBDF8082043F229
:10E9700033339A42E6D19DF80A40002CE2D10D488B
:10E9800005F048FD0C4808F079FC084805F042FD08
:10E99000074B1B68986808F069FFE3E7701E0210D8
:10E9A00035393432241D0210941E0210E81C021066
:10E9B00098050020C01C0210841E021010B58EB0F5
:10E9C000154801A900F052FA144901A80AF0D8F834
:10E9D00088B90446124805F01DFD124808F04EFCA7
:10E9E000114805F017FD114B1B68986808F03EFFB1
:10E9F00020460EB010BD0E4805F00CFD0D4808F085
:10EA00003DFC094805F006FD084B1B6898684FF06F
:10EA1000FF3408F02BFFEBE7A41E0210B41E021017
:10EA2000C01C0210C81E0210E81C0210980500202D
:10EA3000241D0210D81E021070B590B0FFF7BEFF63
:10EA400008B110B070BD044603A92F482F4ECDE980
:10EA5000014400F00BFA01AA2D4903A808F040FF79
:10EA60002C4803A900F002FA294902AA03A808F0D9
:10EA700037FF7168002935D0029D331D204602E022
:10EA8000013088422ED053F8042FAA42F8D1831CBB
:10EA9000019A214846F8232000F0B6FA1B491E4887
:10EAA0001E4C882200F0B4FA1D4805F0B3FCDDE9E5
:10EAB00001211C4805F0AEFC1B4805F0ABFC2368A7
:10EAC000986808F0D3FE194805F0A4FC184808F02F
:10EAD000D5FB154805F09EFC2368986808F0C6FE33
:10EAE00010B070BD134805F095FC0299124805F06E
:10EAF00091FC0D4805F08EFC084B1B68986808F0E7
:10EB0000B5FE10B070BD00BF0C1F0210400C0020FD
:10EB1000201F0210241F021000C0071098050020BB
:10EB2000C01C0210381F0210E81C0210101D021039
:10EB3000581F0210241D0210601F021000B58FB074
:10EB4000FFF7F6FE10B10FB05DF804FB0F4801A906
:10EB500000F08CF90E496A4601A808F0C1FE009841
:10EB6000FFF780FD0028EED10A4805F053FC0A4863
:10EB700008F084FB094805F04DFC094B1B689868B8
:10EB800008F074FE0FB05DF804FB00BF981F021080
:10EB9000201F0210101D0210A81F0210E81C0210F6
:10EBA0009805002038B5074C04F1200508F06EFBED
:10EBB0004342DBB2C0B258BF584204F8010FAC4226
:10EBC000F4D138BD1B0C00202DE9F0479EB0FFF7B3
:10EBD000E9FF3C4B0FCB01AC84E80F003A4A3B49BC
:10EBE0003B48234600F0DAF8002867D1394808F09E
:10EBF00045FBFFF7B1FB3848DFF8E090384D394C62
:10EC0000394E3A4FDFF8E880DFF8E8A005F002FC63
:10EC1000394808F033FB394805F0FCFBD9F80030DF
:10EC2000986808F023FE05A9284600F01FF9059B07
:10EC3000A34218D0059BB3421CD0059BBB4223D0F6
:10EC4000059B434526D02E4805F0E4FB2D4805A939
:10EC500005F0E0FB294805F0DDFBD9F800309868A5
:10EC600008F004FEDFE79DF81830002BE2D1FFF733
:10EC7000B9FBD8E79DF81830002BDED1FFF736FC42
:10EC8000A8B9FFF7D9FDCEE7069B5345D8D1FFF7CA
:10EC9000D3FEC8E7BDF8182047F273439A42D2D199
:10ECA0009DF81A30002BCED1FFF748FFBBE7144880
:10ECB00005F0B0FB144808F0E1FACBE7134808F080
:10ECC000DDFA96E7E02002101C0C0020B01F0210B5
:10ECD000F81F021040200210EC1C021098050020C2
:10ECE000942002106C697374626F6F747265706C3B
:10ECF000617474656163650074200210E81C021081
:10ED0000241D0210C4200210E81E02105C20021014
:10ED100000F08AB9C0B2704770B504460D46164679
:10ED200000F006FA00280DDB33462A460021204673
:10ED300000F04CFA002805DB0121204600F0DCF948
:10ED4000C01770BD4FF0FF3070BD00BF70B50446F6
:10ED50000E4602E00CD003F0E5FA204600F088F9F8
:10ED600000284FF03200F5DA4FF0FF35284670BD2D
:10ED7000204600F09FF9051EF6DB3346EAB2032178
:10ED8000204600F00BFA0028EEDB0121204600F0BF
:10ED9000E9F90028E8DB284670BD00BF2DE9F04303
:10EDA000ADF59D5D81B00C462B499046994608F023
:10EDB00097FFB8B329490546204608F091FF07465A
:10EDC00000283DD00DF58056173626F00F0600229C
:10EDD00000924B4641462022304602F055FA07E0A9
:10EDE00002F090FA3B462246012102A809F05CFAA3
:10EDF0002B464FF48052012102A809F053F8044633
:10EE000002A9002C0A4630462346E9DC284608F0D1
:10EE1000C5FA384608F0C2FA00200DF59D5D01B034
:10EE2000BDE8F0830E4B0F481B682122DB680121EF
:10EE300009F03AFA01200DF59D5D01B0BDE8F083BF
:10EE4000284608F0ABFA064B07481B682222DB680D
:10EE5000012109F029FAEDE71C22021044220210D8
:10EE600098050020202202104822021070B50546A5
:10EE70001048114E0C4605F0CDFA284605F0CAFAA6
:10EE80000E4805F0C7FA3368986808F0EFFC0020D8
:10EE900008F0ECFC0A4805F0BDFA3368986808F001
:10EEA000E5FC204609F034FCBDE87040054808F058
:10EEB000E5B900BFC01C021098050020E81C021034
:10EEC0006C220210941F021081B170B50144094EEA
:10EED000441E4D1E14F8011F304605F09BFAAC424B
:10EEE000F8D1BDE870400A2008F068B90A2008F09F
:10EEF00065B900BF782202102DE9F0410C46DCB064
:10EF000009B31E4611F00F031DD1114605460093AB
:10EF1000102203A802F0B8F9804680B9012C04F150
:10EF2000FF370CD0044601E0A74208D92A1931194D
:10EF300003A8103402F0B6F90028F5D08046404608
:10EF40005CB0BDE8F0814FF0FF38F8E72DE9F04103
:10EF5000DCB019B31E4611F00F030C461ED111464A
:10EF6000012200920546102203A802F08DF9804686
:10EF700080B9012C04F1FF370CD0044601E0A74210
:10EF800008D92A19311903A8103402F0A3F900286E
:10EF9000F5D0804640465CB0BDE8F0814FF0FF38C8
:10EFA000F8E700BF02F020BA094A536AD90703D52F
:10EFB000516A21F0010151629B0700D47047044A55
:10EFC0000448536A23F00203536208F057B900BFA4
:10EFD000009002408022021008B50849172003F073
:10EFE000DBF9074B4FF400021A604FF4407003F056
:10EFF0001FFBBDE80840034804F0C0BBA9EF0010A8
:10F0000000E100E000A002401CF072BB03F00EBB68
:10F010000B4611461A4603F007BB00BF014803F038
:10F020006BBD00BF00E0014010B50C48002201217B
:10F0300003F0FEFC044660B90949084803F042FDAC
:10F040000849242003F0A8F9074B10225A602046F3
:10F0500010BD064808F012F9204610BD00E001403E
:10F06000A08601001DF0001000E100E0A8220210BF
:10F0700010B50F498AB00424CDE902100023012203
:10F080008DF806400DF107010DF1060402A8CDE947
:10F090000442CDE90612CDE908338DF8073003F0BC
:10F0A00025FD0028A8BF9DF807000AB010BD00BFCD
:10F0B00000E0014010B50F498AB00524CDE90210E7
:10F0C000002301228DF806400DF107010DF1060421
:10F0D00002A8CDE90442CDE90612CDE908338DF846
:10F0E000073003F003FD0028A8BF9DF807000AB011
:10F0F00010BD00BF00E0014030B58BB005460B4AA3
:10F100000292012000238DF8040001AA022402A823
:10F11000CDE90424CDE90633CDE908338DF8051097
:10F12000039503F0E3FC0BB030BD00BF00E00140ED
:10F1300010B58AB004460A488DF805100023022253
:10F14000029001A902A8CDE90412CDE90633CDE968
:10F1500008338DF80420039403F0C8FC0AB010BDF6
:10F1600000E0014030B58BB005460B4A0292042006
:10F1700000230DEB00028DF80400022402A8CDE963
:10F180000424CDE90633CDE908338DF80510039545
:10F1900003F0ACFC0BB030BD00E0014030B58BB0EB
:10F1A000094D8DF8071003900DF107010120CDE9FD
:10F1B0000410002402A8CDE90632CDE908440295E6
:10F1C00003F094FC0BB030BD00E0014070B5CAB054
:10F1D0008C46054619460DF1250014468DF824C0CD
:10F1E00009F0BEFE084B019309AE0023013401A8CB
:10F1F000CDE90533CDE9073302950494039603F076
:10F2000075FC4AB070BD00BF00E001402DE9F04F31
:10F2100087B00D684F688E68CC68CDE9003203680E
:10F220002DBA5D4043683FBA5F40836836BA5E409E
:10F23000C368F9B2F2B224BA5C4001F54071EA4BFE
:10F2400002F540725FFA84FE53F8218053F82210D1
:10F250000EF5407E2A0E53F82EE053F822205FFA76
:10F2600085FC82EA0E020CF5407C4FEA176E53F8DB
:10F270002CC053F82EE08EEA0C0E4FEA166C53F8B1
:10F280002CC08CEA080C4FEA146853F8288088EAEE
:10F290000101C7F30748C7F3072707F50077029175
:10F2A00053F827B00169C6F30747C6F3072606F5EA
:10F2B000007608F5807853F8269053F828A0C4F318
:10F2C0000746C4F3072407F5807704F500744A4025
:10F2D000416953F8278053F8247006F58076C5F30A
:10F2E0000744C5F307258EEA010E05F5007581690F
:10F2F00053F8266053F825508CEA010C04F580740D
:10F300008CEA060C8CEA050C53F82440C569029976
:10F310006940614081EA0B01CCB28EEA080E04F527
:10F3200040748EEA070E53F82450CEF3074404F5D8
:10F33000807482EA0A0253F824705FFA8EF404F5AE
:10F34000407482EA090203945FFA8CF404F5407970
:10F35000140ED6B2C2F3074BC2F3072253F824406F
:10F36000CDF8149002F500720492CCF30728026ADB
:10F3700008F500786C4054404FEA1E697C4006F561
:10F38000407653F8287053F82660039ACEF3072E80
:10F3900067400EF5007A53F82940DDF8149053F8D1
:10F3A0002AA04FEA1C6ECCF3074C0CF58075744014
:10F3B0004FEA116C53F82E6053F822E00295029A3E
:10F3C00053F82CC086EA0E0653F829E0C1F307452E
:10F3D000C1F3072101F500718CEA0E0C53F822E00D
:10F3E000049A53F8219053F82210426A05F580756B
:10F3F0005440826A53F8258056400BF5807B86EA9C
:10F4000008064E40C16A53F82B508CEA010C8CEA76
:10F41000050C8CEA0A0C5FFA8CF284EA0E0402F501
:10F42000407284EA090453F82210C4F3074202F53B
:10F43000807253F822A0C6F3072202F5007253F837
:10F4400022500295FAB202F5407253F82250C6F3E8
:10F45000074202F5807253F822200392CCF3072270
:10F4600002F5007253F822E0CDF810E0E2B202F5A6
:10F4700040725FFA86FE53F822B0CCF3074202F5E1
:10F4800080724FEA1C6C53F8229053F82C20C7F37B
:10F49000072C0CF5007C360E53F82C8053F82660B0
:10F4A0004FEA176C86EA0B0653F82CB0C7F30747F0
:10F4B0008BEA010B07F58071270E0EF5407E53F89D
:10F4C000277087EA050C056B8BEA050B029D8BEA1A
:10F4D0000A076F40456B8CEA050C039D8CEA050C0E
:10F4E000049D8CEA050C856B6E4053F82E50C4F3D6
:10F4F000072482EA050E04F5007453F82150C16B0D
:10F5000053F824208EEA010E8EEA050E8EEA020ED2
:10F510005FFA8EF202F5407286EA090653F822106D
:10F52000FAB202F5407286EA080653F822805FFAC2
:10F530008CF202F5407253F82250F2B202F540729A
:10F5400053F822403A0E53F8222051404FEA1C62F1
:10F5500053F8222082EA08024FEA166853F82880FE
:10F5600088EA05054FEA1E6853F8288088EA0404F3
:10F57000CCF30748CCF3072C08F580780CF5007C19
:10F5800053F828B0029453F82C400394C6F3074C68
:10F590000CF5807CC6F3072606F5007653F82C9010
:10F5A000046C53F826A0CEF3074CCEF3072E0EF5CD
:10F5B00000766140446C53F826800CF5807CC7F3DC
:10F5C0000746C7F30727624007F50077846C53F8B6
:10F5D0002CE053F82770654085EA0E0506F5807625
:10F5E0007D40029CC76C01E0C433021053F82660D2
:10F5F0007C40039F74407C40E6B282EA090206F533
:10F60000407682EA080253F82670C2F3074606F5F0
:10F61000807681EA0B0153F826C0CDF808C0C5F307
:10F62000074C0CF5807B5FFA82FC81EA0A01C5F386
:10F6300007260CF540795FFA85FC2D0E04950D0E1A
:10F6400006F5007653F8255053F826E0CDF80CE087
:10F65000CEB26F4006F54076150E53F8266053F88B
:10F66000255053F829907540066D7740029E7740EB
:10F67000039E7740466D754053F82B60DDF810B05F
:10F680004FEA1468C4F3074EC4F307240CF5407A1C
:10F69000754004F5007453F82B60C1F3074CC2F3B6
:10F6A0000722C1F3072186EA090902F5007253F81F
:10F6B000286053F82A8053F824400EF5807E01F527
:10F6C000007153F82EA00CF5807C85EA040E53F8E7
:10F6D000214053F82210826D86EA080653F82C80E8
:10F6E00089EA020CC26D564086EA08064E40F2B224
:10F6F00002F540728CEA0A0C53F82280FAB202F545
:10F7000040728CEA040C53F822505FFA8EF202F534
:10F71000407253F822405FFA8CF202F5407253F8BF
:10F7200022103A0E53F8222082EA08024FEA1E689D
:10F7300053F8288088EA05054FEA1C6853F82880AA
:10F7400088EA04044FEA166853F8288088EA010121
:10F75000CEF30748CEF3072E0EF5007E029153F844
:10F760002E100391CCF3074ECCF3072C0CF5007C44
:10F77000016E53F82CA0C6F3074CC6F3072608F514
:10F78000807806F500764A40416E53F828B053F869
:10F7900026800EF5807E0CF5807CC7F30746C7F304
:10F7A00007274D4007F50077816E53F82E9053F8E8
:10F7B0002CE053F827704C4084EA0E0406F580765E
:10F7C0007C400299C76E53F826607940039F7140D0
:10F7D000794082EA0B0285EA090582EA0A0285EA93
:10F7E00008055FFA81F8170E08F540785FFA82FE87
:10F7F000E6B253F8279053F828700EF5407E5FFA72
:10F8000085FC06F540760CF5407C53F826B053F89D
:10F810002C8089EA07072E0E53F82E9053F82660A5
:10F82000C5F3074EC5F307254FEA146C0EF5807E2D
:10F8300005F5007553F82EA053F82CC053F825E0B9
:10F84000C4F30745C4F3072404F500748CEA080CDC
:10F850004FEA116886EA090653F8249053F8288085
:10F86000C1F30744C1F3072105F5807504F58074E1
:10F8700001F5007188EA0B0B53F8258053F82450EA
:10F8800053F82140C2F30741C2F3072202F5007288
:10F8900001F5807153F822200292026F53F8211073
:10F8A0005740426F564086EA08066640846F029AC7
:10F8B0008CEA040CC46F8CEA050C8BEA04048CEA15
:10F8C000020C4C4072465440E2B202F5407287EAA4
:10F8D0000A0753F82250C6F3074202F5807287EAFE
:10F8E000090753F822200292CCF3072202F5007296
:10F8F000C7F3074953F822100391FAB202F5407298
:10F9000009F5807953F82210CCF3074202F5807292
:10F9100053F822E0CDF810E0C4F3072202F500729C
:10F920005FFA8CFE53F82280CDF81480F2B202F513
:10F9300040724FEA1C6C53F8222053F82CC08CEA1A
:10F9400002024FEA176CC7F3072753F82CB08BEA73
:10F95000050B350E07F5007C53F82550029F85EA0C
:10F96000010AD0F880508BEA050B039D8BEA07074C
:10F970006F40D0F884508AEA050A049D4FEA146863
:10F980008AEA050AC4F30744059D53F82880C6F3A4
:10F99000072604F5807406F500718AEA0506D0F89A
:10F9A000885053F8244053F821100EF5407E6A40E9
:10F9B00053F82E5082EA040E53F82C2053F82940B5
:10F9C0008EEA020ED0F88C2088EA050585EA020C42
:10F9D0008CEA040C8CEA010C5FFA8CF202F540729E
:10F9E0004FEA176853F8221053F82880FAB202F54C
:10F9F000407288EA01014FEA166853F8225053F822
:10FA00002880F2B202F5407288EA05054FEA1E68C6
:10FA100053F8224053F828805FFA8EF288EA0404F3
:10FA200002F540724FEA1C6853F8222053F82880F0
:10FA300088EA0202C6F30748C6F3072606F50076F1
:10FA4000029253F826200392CEF3074606F58076FD
:10FA5000CEF3072E53F82690CCF3074608F58078AE
:10FA60000EF5007E06F5807653F828B053F82EA0E8
:10FA700053F826E0D0F890205140D0F89420C7F3F6
:10FA80000746C7F30727554007F50077D0F89820B9
:10FA900053F82770544006F5807684EA0E04029AE3
:10FAA00053F826607C40D0F89C70CCF3072C7A4049
:10FAB0000CF5007C7240009E53F82C80039F81EA75
:10FAC0000B0185EA0905052E81EA0A0185EA080588
:10FAD00082EA070240F2ED81D6B206F54076C5F320
:10FAE000074E53F82670CEB206F540760EF5807EAE
:10FAF00053F826C0EEB206F5407653F82680E6B2FB
:10FB000006F5407653F826B00E0E53F8266077407F
:10FB10002E0EC5F3072553F8266005F5007586EA15
:10FB20000C064FEA146C53F825A053F82CC0C4F30C
:10FB30000745C4F3072404F500748CEA080C4FEA67
:10FB4000126853F8249053F82880C2F30744C2F394
:10FB5000072205F5807502F5007288EA0B0B53F851
:10FB60002E8053F825E053F82250C1F3074202F5E6
:10FB7000807204F5807453F822200292D0F8A020FD
:10FB800053F824405740D0F8A420564086EA0E0689
:10FB9000C1F30721754001F50071D0F8A86053F852
:10FBA0002110029A8CEA060C8CEA040C8CEA010CF7
:10FBB000D0F8AC108BEA0106564052465640F2B2DD
:10FBC00002F54072CCF3074453F82210C5F3074204
:10FBD00002F5807204F5807453F822B053F8244083
:10FBE0000394CCF30722C6F3072402F5007287EAD8
:10FBF000080704F5007487EA090753F8222053F830
:10FC000024E00292ECB2FAB2CDF810E002F54072B4
:10FC10005FFA8CFE04F540744FEA1C6C53F8222006
:10FC200053F8244053F82CC08CEA04044FEA176CB4
:10FC30004FEA166853F82CC053F828808CEA01016B
:10FC40004FEA156CC6F3074653F82CA08AEA020A5D
:10FC5000D0F8B0205140029A81EA0B015140D0F80F
:10FC6000B4208AEA020A039A8AEA020A049AC5F3CD
:10FC7000072506F5807605F5007CC7F307498AEA73
:10FC80000205C7F30727D0F8B82053F8266007F518
:10FC900000770EF5407E5440744053F8276053F8C7
:10FCA0002E2053F82C7009F580797440D0F8BC6090
:10FCB00053F829E088EA02027240009E82EA0E02AE
:10FCC000062E82EA070200F0F480D6B206F54076EE
:10FCD000C5F3074E53F82670CEB206F540760EF502
:10FCE000807E53F826C0EEB206F5407653F82680A3
:10FCF000E6B206F5407653F826B00E0E53F82660AD
:10FD000077402E0EC5F3072553F8266005F50075DC
:10FD100086EA0C064FEA146C53F825A053F82CC061
:10FD2000C4F30745C4F3072404F500748CEA080CF7
:10FD30004FEA126853F8249053F82880C2F307441E
:10FD4000C2F3072205F5807502F5007288EA0B0BF5
:10FD500053F82E8053F825E053F82250C1F30742A0
:10FD600002F5807204F5807453F822200292D0F8D4
:10FD7000C02053F824405740D0F8C420564086EAAB
:10FD80000E06C1F30721754001F50071D0F8C86077
:10FD900053F82110029A8CEA060C8CEA040C8CEAC7
:10FDA000010CD0F8CC108BEA010656405246564062
:10FDB000F2B202F54072CCF3074453F82210C5F3B7
:10FDC000074202F5807204F5807453F822B053F8AC
:10FDD00024400394CCF30722C6F3072402F50072F3
:10FDE00087EA080704F5007487EA090753F8222018
:10FDF00053F824E00292ECB2FAB2CDF810E002F52A
:10FE000040725FFA8CFE04F540744FEA1C6C53F8A4
:10FE1000222053F8244053F82CC08CEA04044FEA03
:10FE2000176C4FEA166853F82CC053F828808CEAF8
:10FE300001014FEA156CC6F3074653F82CA08AEA75
:10FE4000020AD0F8D0205140029A81EA0B015140B9
:10FE5000D0F8D4208AEA020A039A8AEA020A049AAB
:10FE6000C5F3072506F5807605F5007CC7F307493D
:10FE70008AEA0205C7F30727D0F8D82053F826608E
:10FE800007F500770EF5407E5440744053F8276024
:10FE900053F82E2053F82C7009F580797440D0F86F
:10FEA000DC6053F829E088EA0202724082EA0E021E
:10FEB0007A40D6B206F580764FEA146913F826C068
:10FEC000C5F3074606F5407609F5007953F8266034
:10FED00053F8299006F47F080E0E06F500765FFAB7
:10FEE00084FA53F8266006F07F4648EA0608CEB248
:10FEF00006F580760AF5807A13F82670C4F3074673
:10FF000006F54076C4F3072453F8266006F47F0E06
:10FF10002E0E06F5007609F07F4953F8266006F0AC
:10FF20007F464EEA060EEEB2C5F307254FEA126B86
:10FF300053F8255005F47F450295C2F3074505F5B2
:10FF40004075C2F3072253F8255053F8222005F4D8
:10FF50007F0545EA090553F8249013F82A40C1F3B8
:10FF6000074A0BF5007B06F58076C1F307210AF5F9
:10FF7000407A13F8266053F8211053F82AA053F85A
:10FF80002B3002F47F4B009A0AF47F0A03F07F4380
:10FF90004AEA030300EB421A520109F47F498258EE
:10FFA0008CEA020CDAF804205740DAF808205640B0
:10FFB000DAF80C205440029A01F47F418CEA090CD3
:10FFC00087EA0B074E40544001998CEA080C87EAF7
:10FFD0000E076E405C409CFA8CFC3FBA36BA24BADD
:10FFE000C1F800C04F608E60CC6007B0BDE8F08FF4
:10FFF0002DE9F04F87B00D684C68D1F80890CE68B5
:020000041001E9
:10000000CDE9003203682DBA5D40436824BA5C40F4
:10001000836899FA89F989EA0309C3685FFA84FC5D
:100020005FFA89F7EAB236BA5E400CF5407CE84BDD
:1000300007F5407702F54072F1B253F82C8053F87F
:1000400027C053F8227001F540712A0E53F821E0C1
:1000500053F82210220E81EA080153F8222082EA86
:100060000C024FEA196C029253F82CC08CEA0E0C69
:100070004FEA166E53F82EB08BEA070BC6F307470C
:10008000C6F3072606F5007607F5807753F826E0D5
:1000900053F827A0C5F30746C5F3072506F5807674
:1000A00005F5007553F8268053F82560C4F307451D
:1000B000C4F3072404F5007405F5807553F8242073
:1000C00003920269029C53F8257051404269C9F3BA
:1000D0000745C9F30729544005F5807509F50079EE
:1000E00084EA080282EA0E0253F8255053F8299058
:1000F000D0F818E0039C8CEA0E0C8CEA070C8CEA12
:10010000060CC6698BEA060B8BEA050BD5B205F522
:1001100040758BEA040453F82560C4F3074505F5E0
:10012000807581EA0A0153F8257002975FFA8CF511
:1001300081EA090105F5407BE5B205F5407ECDB2C7
:1001400005F540790D0E4FEA1268C2F3074AC2F373
:10015000072253F82550CDF80CE002F50072059205
:10016000CCF30727026A754007F500775540029ADD
:1001700053F8277055406F40039A53F8285053F8AE
:100180002B804FEA1C6ECCF3074C0CF5807653F8AD
:100190002EE004964FEA146C85EA080553F8228095
:1001A000059A53F82CC0C1F307460AF5807A06F584
:1001B00080768EEA080EC4F3072453F8298053F89A
:1001C0002A9053F822A0426A04F500748CEA080CC5
:1001D00053F8268053F82440049E554085EA0805CC
:1001E000C1F30721654001F50071846A53F82110BD
:1001F00053F826608EEA040E8EEA090E8EEA010E8E
:10020000C16AEAB28CEA010C8CEA060C02F5407273
:100210008CEA0A0CC7F3074153F822A0CCF307423B
:1002200002F5807201F5807153F8222053F82110F5
:100230000391CCF3072101F50071029253F821805C
:10024000CDF810805FFA8CF101F540714FEA1C6C1B
:1002500053F8214053F82CB0C5F3074101F58071E4
:10026000CEF3072253F82180C7F3072101F500716F
:1002700002F5007253F821C053F82260F9B23F0E24
:100280005FFA8EF253F8277002F5407287EA0A0A85
:100290002F0E53F8222053F82770C5F3072587EA5D
:1002A000020905F500724FEA1E6501F5407153F829
:1002B000257053F821106740046B8AEA040A029CF7
:1002C0008AEA040A446B89EA0409039C89EA04095E
:1002D000049C8BEA010B89EA040553F82210846B15
:1002E000C26BCEF3074E0EF5807E67408BEA020BA1
:1002F000EAB253F82E4087EA080702F5407287EA0F
:100300000C078BEA040B53F82240FAB202F5407254
:100310008BEA010B53F822E05FFA8BF202F5407290
:100320008AEA060653F82210F2B202F5407253F838
:100330002280320E53F8222054402A0E53F82220F5
:1003400082EA0E024FEA176E029253F82EE08EEA0E
:1003500001014FEA1B6E53F82EE08EEA0808CBF33A
:10036000074ECBF3072B0BF5007C0EF5807E53F880
:100370002C2053F82EB00392C6F3074CC6F3072681
:100380000CF5807C06F5007653F82C9053F826C0C7
:10039000026CC5F3074606F58076544053F826E014
:1003A000029AC7F30746C7F3072707F5007784EAE1
:1003B0000B0453F8277084EA070A476C039C7A40C1
:1003C000876C82EA0902C5F3072506F5807601E00D
:1003D000C4230210624005F5007581EA0704C76C6A
:1003E00053F8266053F8255088EA070184EA0E0482
:1003F00084EA0C047140CAF3074C69400CF5807C18
:10040000CDF80CC05FFA81FC0CF5407ED5B25FFAE6
:100410008AFC0CF5407905F540754FEA1A6C53F8E3
:10042000255053F82CB0CDF810E0E7B28BEA050B5D
:1004300007F54077150EC1F3074653F8277053F8B8
:10044000255006F580767D4053F82660076D0296AC
:100450008BEA070B029F8BEA070B476D7D40039FDA
:10046000C4F3072653F827704FEA14684FEA116E59
:1004700006F50076C1F3072101F5007153F82660F7
:10048000C2F3074C7D40C2F3072253F82870DDF811
:10049000108053F8211053F8288053F82EE002F50D
:1004A00000724D400CF5807C53F82210826D53F899
:1004B0002CC087EA0807CAF3072A53F829800AF5EF
:1004C000007A5740C4F30744C26D8EEA080E04F563
:1004D000807453F82A8053F8244087EA0C078EEA88
:1004E000020CEAB202F5407287EA08078CEA040CB3
:1004F00053F82240FAB202F540728CEA010C53F82C
:1005000022105FFA8CF202F540728BEA060653F86D
:100510002280F2B202F5407253F822E0320E53F814
:10052000222054402A0E53F8222051403A0E53F80C
:10053000222082EA08024FEA1C68029253F82880BF
:10054000026E88EA0E0ECCF30748CCF3072C08F5B0
:1005500080780CF5007C53F828B053F82C80C6F353
:10056000074CC6F307260CF5807C06F5007653F899
:100570002C9053F826C0C5F3074606F58076544004
:1005800053F826A0029AC7F30746C7F3072707F5D3
:10059000007784EA0B0453F827707C40476EC5F35C
:1005A0000725794005F50075876E53F8255006F547
:1005B00080767A4053F82660C76E82EA0A0282EAA1
:1005C0000C0281EA09018EEA070C81EA08018CEA33
:1005D000060C8CEA050C5FFA81F85FFA82FEE5B240
:1005E000260E08F540780EF5407E05F5407553F867
:1005F000269053F8286053F82E8053F825E00D0E0E
:100600005FFA8CF753F8255007F5407785EA08051F
:100610004FEA126853F8277053F8288088EA0707D2
:100620004FEA1C68C2F3074A53F82880C2F3072236
:1006300002F5007288EA0E08CCF3074E53F8222028
:1006400002920EF5807E026F53F82EB089EA0606FC
:100650005640029AC4F3074E86EA0B065640CCF386
:10066000072C426F0EF5807E0CF5007C53F82EE0CF
:1006700053F82CC05540826FC1F307490AF5807AC0
:10068000C1F3072185EA0E05574001F50071C26FDD
:1006900053F82AA053F8211085EA0C0C88EA020EC0
:1006A0005FFA8CF28EEA0A0E02F54072C4F3072458
:1006B00009F580798EEA010E04F5007453F82210D2
:1006C00053F8299053F82440CEF3074202F5807284
:1006D00087EA0907674053F822200292C7F30722EE
:1006E00002F5007253F82280CDF80C80FAB202F5C0
:1006F00040725FFA86F853F82240C6F3074202F5CB
:10070000807208F5407853F82290CDF81090CEF31F
:10071000072202F50072CCF3074953F822505FFA22
:100720008EF24FEA1E6ECDF814E04FEA166EC6F355
:10073000072653F82EB08BEA010B06F500714FEA3D
:100740001C6602F5407253F8266053F8222086EAB0
:10075000040A3C0EC7F3074753F8244084EA020E0C
:10076000D0F880408BEA040B029C8BEA040B039CBC
:100770008BEA0406D0F884408AEA040A049C8AEAD8
:10078000040AD0F8884007F580728EEA0407DDF885
:1007900014E053F8284053F82EE009F580798EEAEA
:1007A000040453F829E087EA0E0753F822E053F8CF
:1007B0002120CCF3072C57400CF5007CD0F88C207E
:1007C00053F82C108AEA050584EA020CEAB202F515
:1007D00040728CEA0E0C53F82240FAB202F54072D5
:1007E0008CEA010C53F822105FFA8CF202F5407289
:1007F00053F82280F2B202F5407253F822E0320E32
:1008000053F8222054402A0E53F8222051403A0E29
:1008100053F8222082EA08024FEA1C68029253F839
:10082000288088EA0E08CCF3074ECCF3072C0CF591
:10083000007C0EF5807E53F82CA053F82EB0C6F342
:10084000074CC6F307260CF5807C06F5007653F8B6
:100850002C9053F826C0C5F3074606F58076C5F3FD
:10086000072505F5007553F826E053F82550D0F814
:100870009020C7F30746C7F3072707F500775440D2
:1008800053F82770029A84EA0B047C40D0F89470E5
:100890007940D0F8987006F580767A40D0F89C7050
:1008A00053F8266082EA0E0282EA0C0288EA070CFC
:1008B0008CEA060C8CEA050C009D81EA0901052DE5
:1008C00081EA0A0140F2EE81CDB205F54075C2F32E
:1008D000074A53F82560D5B205F54075C1F30749BD
:1008E00053F825805FFA8CF505F540750AF5807A96
:1008F00053F8257053F82AA0E5B205F5407509F5BF
:10090000807953F825E053F82990250E53F82550A7
:100910006E400D0EC1F3072153F8255085EA0805F6
:100920004FEA1268C2F3072253F8288088EA0707C3
:100930004FEA1C6802F5007253F8288053F8222011
:10094000029288EA0E08CCF3074E0EF5807ED0F8AE
:10095000A02053F82EB05640029AC4F3074E86EA00
:100960000B065640CCF3072CD0F8A4200EF5807E61
:100970000CF5007C53F82EE053F82CC05540D0F80D
:10098000A82085EA0E05574001F50071D0F8AC208B
:1009900053F8211085EA0C05C4F3072488EA020CF9
:1009A000EAB28CEA0A0C02F5407204F500748CEA93
:1009B000010C53F822E053F82440CCF3074287EAB5
:1009C000090702F58072674053F82240C7F30722F7
:1009D00002F500724FEA166853F8229053F8288007
:1009E000FAB202F540724FEA1C6A53F82210C6F3BD
:1009F000074202F5807288EA0E0853F822B0CCF361
:100A0000072202F500724FEA156E53F82220029277
:100A10005FFA8CF202F540725FFA86FCC6F3072695
:100A200006F5007653F82220039653F82EE08EEA5E
:100A300001014FEA176E0CF5407C53F82EE053F895
:100A40002CC08EEA0206D0F8B02088EA0208D0F85E
:100A5000B420C5F3074E5140029A0EF5807E81EA1C
:100A60000B015140D0F8B82053F82EE0564086EAEA
:100A70000E02039EC5F3072553F8266005F50075A1
:100A800088EA0408C7F3074788EA090453F82A905C
:100A900007F58077724053F82560D0F8BC5053F8C2
:100AA000277089EA0C0C8CEA050C009D8CEA070C77
:100AB000062D8CEA060C00F0F580CDB205F54075E8
:100AC000C2F3074A53F82560D5B205F54075C1F366
:100AD000074953F825805FFA8CF505F540750AF54E
:100AE000807A53F8257053F82AA0E5B205F54075D1
:100AF00009F5807953F825E053F82990250E53F82D
:100B000025506E400D0EC1F3072153F8255085EA9C
:100B100008054FEA1268C2F3072253F8288088EAD2
:100B200007074FEA1C6802F5007253F8288053F853
:100B30002220029288EA0E08CCF3074E0EF5807E42
:100B4000D0F8C02053F82EB05640029AC4F3074E96
:100B500086EA0B065640CCF3072CD0F8C4200EF5DD
:100B6000807E0CF5007C53F82EE053F82CC05540E5
:100B7000D0F8C82085EA0E05574001F50071D0F87D
:100B8000CC2053F8211085EA0C05C4F3072488EA29
:100B9000020CEAB28CEA0A0C02F5407204F5007409
:100BA0008CEA010C53F822E053F82440CCF30742BE
:100BB00087EA090702F58072674053F82240C7F3BD
:100BC000072202F500724FEA166853F8229053F894
:100BD0002880FAB202F540724FEA1C6A53F82210DC
:100BE000C6F3074202F5807288EA0E0853F822B075
:100BF000CCF3072202F500724FEA156E53F822205B
:100C000002925FFA8CF202F540725FFA86FCC6F33C
:100C1000072606F5007653F82220039653F82EE0B7
:100C20008EEA01014FEA176E0CF5407C53F82EE076
:100C300053F82CC08EEA0206D0F8D02088EA0208C9
:100C4000D0F8D420C5F3074E5140029A0EF5807EAD
:100C500081EA0B015140D0F8D82053F82EE05640DD
:100C6000C7F30747C5F3072586EA0E0207F5807725
:100C7000039E53F8277053F8266005F5007588EA3F
:100C8000040888EA090453F82A9053F82550D0F84C
:100C9000DC3089EA0C0C8CEA030C8CEA070C7240FD
:100CA0008CEA050C314B250ECEB25D5D9E5D46EAA9
:100CB00005660D0E5FFA8CFE5F5D13F80EE0D5B28F
:100CC0005D5D45EA0765170EDF5D4EEA076E4FEA88
:100CD0001C6713F80780E7B2DF5D47EA0867CCF3CB
:100CE0000748CCF3072C13F8088013F80CC046EA29
:100CF0000846C4F30748C4F3072413F8088045EAFC
:100D0000084545EA0C2513F804C0C1F30744C1F3B4
:100D100007211C5D4EEA044444EA0C2413F801C088
:100D2000C2F30741C2F30722595C9B5C009A46EA72
:100D3000032300EB4216520147EA01418258534017
:100D4000726885EA0200B268019D6240F46841EA77
:100D50000C211BBA2B6081EA040300BA12BA1BBA39
:100D60006860AA60EB6007B0BDE8F08FC422021093
:100D7000002800F07D822DE9F04FA2F11005102D22
:100D800085B0924604D81F46D84BEB40DB0704D40D
:100D90006FF0AC0005B0BDE8F08F4FEA920808F1A3
:100DA000060389460446C0F8F420C0F8F030064631
:100DB00000F1F80B002F47D0D7F800E0D7F804C0B7
:100DC000BD68FB68C0F8F8E0CBF804C0CBF8085069
:100DD000CBF80C3008F0C4F804EB8808254623460D
:100DE0001A6812BA43F8042B9845F9D1494652467D
:100DF000204608F0B5F823461A6812BA43F8042BC7
:100E00009845F9D1BAF1180F00F0E881BAF1200F36
:100E100000F05D81BAF1100F00F017810E9B012BDD
:100E20001DD0002F00F0088138687968BA68FB6827
:100E3000C4F8F800CBF80410CBF80820CBF80C303D
:100E4000002005B0BDE8F08FC0F8F870CBF8047052
:100E5000CBF80870CBF80C7008F082F8BCE7D4F837
:100E6000F0309E0025D004EB0313224600211068C9
:100E7000D3F800C0C2F800C018605068D3F804C0AE
:100E8000C2F804C058609068D3F808C0C2F808C01F
:100E90009860D068D3F80CC0C2F80CC00431D86098
:100EA000701A814202F11002A3F11003DFD3D4F8CB
:100EB000F030012BB5D98E4B8E4ACDF808B04FF0EB
:100EC000010EA3460397D5E90460F4B204F58074DB
:100ED000A96913F8244004F540744FEA166A52F8E1
:100EE0002490C4B204F580740AF5807A13F8244083
:100EF00013F82AA004F5407452F82AA052F824C02E
:100F0000CCB204F580748AEA090A13F8244004F587
:100F10004074C1F3074752F824400194C6F30744D4
:100F200004F58074C6F3072606F5807613F824408E
:100F300013F8266004F5807406F5007652F82480D4
:100F400052F826608AEA080AC0F307448AEA0606CD
:100F50002E6104F58074060E06F58076C0F3072036
:100F600013F8244013F8266000F5807004F58074AF
:100F700013F8208052F8260052F8244008F5007833
:100F800080EA0C00604052F828406040686107F534
:100F90008077080EC1F3072100F5807001F580719C
:100FA00013F8277013F8204013F8210052F824108A
:100FB000019C07F5807700F5007052F8277052F811
:100FC0002000614079404140A961E969080E00F5BF
:100FD0008070103513F82060C8B200F580700EF1F3
:100FE000010E13F8204052F8260004F5407452F820
:100FF00024406040C1F3074404F58074C1F3072125
:1010000013F8246001F5807113F8214006F5807112
:1010100004F5007452F82110414052F82400414078
:10102000E960DBF8F0108E45FFF44DAF5C46DDE97A
:1010300002B7002F7FF4F8AEC4F8F870CBF8047054
:10104000CBF80870CBF80C70FAE6D4E901CE284B47
:10105000DFF8A4802068E168A2461A467446634619
:1010600008F128099446D64600E01036CAB24FEA85
:10107000116A0AF5807A5CF822201CF82AA002F492
:101080007F4242EA0A02C1F3074A0AF5007A5CF895
:101090002AA00AF07F4A82EA0A02C1F3072A0AF567
:1010A000407A5CF82AA00AF47F0A82EA0A0258F819
:1010B00004AB82EA0A02504043405C406140C145B3
:1010C000C6E90403C6E90641CFD17446A6E6D4E9D1
:1010D000008ED4E902C1224601956446DFF81C90D7
:1010E000034B40467546944641E000BF01010100B4
:1010F000C4330210C4230210C4430210C0430210C0
:10110000C1F3074E0EF5407EC1F3072853F82EE0D9
:1011100053F828800EF47F0E08F47F484EEA080E3C
:101120004FEA116808F5007853F828A05FFA81F8B3
:1011300008F580780AF07F4A13F828804AEA080800
:10114000D6F810A08EEA0A0E8EEA080ED6F81480A1
:10115000C6F830E08EEA080ED6F81880C6F834E0FB
:101160008EEA080E82EA0E02C6E90EE22036F26925
:1011700059F804AF5FFA82FE4FEA126808F58078EA
:1011800053F82EE013F828800EF47F4E4EEA080E36
:10119000C2F3074808F500788EEA0A0E53F8288053
:1011A00008F07F488EEA080EC2F3072808F5407859
:1011B00053F8288008F47F088EEA080E80EA0E00B3
:1011C0004540DFF8B4E06C406140CE45C6E9080513
:1011D000C6E90A4194D1019D64461FE6D4E902C9DB
:1011E000264BD4F800E0606801951A46A046634695
:1011F000DFF88CA075464C46944605E032696240A3
:101200005140C6E90A21183671695AF8049FCAB2DA
:101210004FEA116E0EF5807E5CF822201CF82EE05D
:1012200002F47F4242EA0E02C1F3074E0EF5007E41
:1012300082EA09025CF82EE00EF07F4E82EA0E028E
:10124000C1F3072E0EF5407E5CF82EE00EF47F0E03
:1012500082EA0E02554068400A4A43405C405245CB
:10126000C6E90650C6E90834C8D1019D4446D5E513
:101270006FF0AC00704700BFDC430210C4330210B3
:10128000C0430210E043021010B4019C28B1F02AC0
:1012900003D8019410BCFFF76BBD6FF0AC0010BC1D
:1012A000704700BF90B108B513460A461946D0F8FA
:1012B000F0305B0803F1FF3CBCF1060F03D8FDF7EB
:1012C000A5FF002008BD6FF0E10008BD6FF0AC0085
:1012D000704700BF90B108B513460A461946D0F8CA
:1012E000F0305B0803F1FF3CBCF1060F03D8FEF7BA
:1012F0007FFE002008BD6FF0E10008BD6FF0AC007C
:10130000704700BF00286CD02DE9F8430E46002935
:1013100064D0002A62D0DBB31B0939D000F1F80990
:1013200002F1100401EB031700F2071500F00308A7
:10133000A4F1100383EA0902920737D14946B8F1B4
:10134000000F28D013F8012B11F801CBA34282EA39
:101350000C0201F8012CF5D1D0F8F0305B085A1ED0
:10136000062A37D84A464946FDF750FFD9F80010FB
:10137000D9F80420D9F80830D9F80CC0C6F80CC048
:1013800031607260B3601036BE4204F11004CFD1F8
:101390000020BDE8F88353F804CB51F8042BA34296
:1013A00082EA0C0241F8042CF5D1D5E700F1F703ED
:1013B000A4F1110213F801CF12F8011FAB428CEA1D
:1013C000010C83F800C0F5D1D0F8F0305B085A1E4C
:1013D000062AC7D96FF0E100BDE8F8836FF0AC00D2
:1013E000D7E76FF0AC007047F0B599B00546684696
:1013F0000E46174600F084FC18B10446204619B08A
:10140000F0BD32462946684600F0A2FB044628B1EA
:10141000684600F093FC204619B0F0BD3946684696
:1014200000F016FC0446F3E7C36CE94A2DE9F04FDF
:101430001A44D0E91534076DD1F800B0466D4D68F7
:10144000D1F814E0D1F81880D1F81CA0D1F8209080
:1014500063403B405A4463401344DE4A224407EB56
:1014600073632C462A4487EA06051D4075401544DF
:10147000D94A8DB032448E68019603EB355532441B
:1014800087EA03062E400A977E401644D34F0A9AF5
:10149000CDF810E01744CA68029205EBF6361744FF
:1014A00083EA050232405A403A440F69CDF814806D
:1014B000BC46CB4FCDF80CC0674406EBB2221F44AC
:1014C00085EA060313406B403B44C64FCDF81890A5
:1014D000774402EB73632F4486EA02051D40754092
:1014E0003D44C14F474403EB3555374482EA030678
:1014F0002E4056403E44BD4FD1F83080574405EB56
:10150000F636174483EA050232405A403A44B84F4F
:101510004F4406EBB2221F4485EA060313406B409A
:101520003B444F6ABC46B34FCDF81CC0674402EB46
:1015300073633D4486EA02071F4077402F448D6A5B
:10154000A5F5244E03EB375782EA030CAEF14F0E9C
:10155000B6440CEA070CCE6A8CEA020CF444B64698
:10156000A54ECDF820E0764407EBFC3C164483EA18
:10157000070202EA0C025A403244A04EDFF880E231
:1015800046440CEBB2221E4487EA0C0313407B4016
:1015900033444E6BB64402EB736377448CEA020E1D
:1015A0000EEA030E8EEA0C0EBE44D1E90E97954961
:1015B0000994494403EB3E5E614482EA030C0CEA61
:1015C0000E0C8CEA020C8C448F49CDF82CB03944B7
:1015D0000EEBFC3C114483EA0E0202EA0C025A4074
:1015E0000A448A490CEBB222214419448CEA0203D2
:1015F00003EA0E0383EA0C03059C0B44844902EBC7
:10160000F36321448E4482EA030101EA0C01514054
:10161000089C7144DFF8FCE103EBF151A644E64479
:1016200083EA010C0CEA020C8CEA030CF444DFF8A8
:10163000E8E1079C01EBBC4CDE44964481EA0C02D5
:101640001A404A40DDF810B07244DFF8D0E10CEBEC
:101650003232DE449E448CEA02030B4083EA0C03E0
:101660007344DFF8BCE1DDF80CB002EBF363AE4489
:101670008E4482EA030101EA0C0151407144DFF813
:10168000A4E103EBF151BE44E64483EA010C0CEA09
:10169000020C8CEA030CF444DFF88CE101EBBC4C47
:1016A000DE44964481EA0C021A404A407244DFF854
:1016B0007CE1DFF87CB10CEB3232A6449E448CEA2C
:1016C00002030B4083EA0C037344DFF868E1029CD9
:1016D00002EBF363CE448E4482EA030101EA0C017B
:1016E00051407144DFF850E103EBF151A644E64468
:1016F00083EA010C0CEA020C8CEA030C069CF4440D
:10170000DFF838E101EBBC4CA644964481EA0C02B8
:101710001A404A407244DFF828E1019C0CEB323257
:10172000B6449E448CEA02030B4083EA0C037344E4
:10173000DFF810E102EBF363A6448E4482EA030172
:1017400001EA0C0151407144DFF8FCE0099C03EB15
:10175000F151D644E64483EA010C0CEA020C8CEA0F
:10176000030CF44401EBBC4CC344934481EA0C02E7
:1017700002EA030E8EEA010EDE440CEB3E3E82EAE4
:101780000E0B049AA2F5B822A2F2BE621A445A4481
:101790002E4BDDF818B05B440EEB327219448CEA24
:1017A0000E035340DDF820B00B442949594402EBA5
:1017B000735361448EEA020C8CEA030C8C44254975
:1017C000DDF80CB0494403EB3C4C8E4444E000BFD0
:1017D00078A46AD756B7C7E8DB702024EECEBDC127
:1017E000AF0F7CF52AC68747134630A8019546FD02
:1017F000D8988069AFF7448BBED75C892211906B73
:10180000937198FD8E4379A62108B44962251EF68E
:1018100040B340C0515A5E26AAC7B6E95D102FD624
:101820005314440281E6A1D8C8FBD3E7E6CDE121F9
:101830008A4C2A8DD60737C3870DD5F4ED145A4547
:1018400005E9E3A9F8A3EFFCD9026F6781F6718778
:1018500022619D6D0C38E5FD82EA030181EA0C01ED
:101860007144DFF880E2A6440CEB7121964483EAD0
:101870000C024A407244DFF870E2029CDE4401EB45
:10188000327273448CEA010E8EEA020E9E44974B2C
:10189000DDF82CB0534402EB7E5E9C4481EA0203E7
:1018A00083EA0E036344DFF848C2AC440EEB3343D3
:1018B000614482EA0E0C8CEA030C8C448D4931445D
:1018C00003EB7C2C11448EEA030282EA0C020A44E8
:1018D000894959440CEB32728E4483EA0C01514021
:1018E0007144DFF818E2A64402EB71519E448CEA81
:1018F00002034B40059C7344DFF804E2A64401EB6D
:101900003343E64482EA010C8CEA030C079CF4445E
:10191000DFF8F0E1A64403EB7C2C964481EA030255
:1019200082EA0C027244DFF8E0E1019CC6440CEB51
:1019300032728E4483EA0C0151407144DFF8CCE1ED
:10194000BE4402EB715173448CEA020E8EEA010E22
:101950009E446F4B234401EB3E4E9C4482EA0103BC
:1019600083EA0E036344DFF8ACC1099C0EEB7323DA
:10197000DC44944463EA010282EA0E026244DFF826
:1019800098C1DDF80CB003EBB262D4448C4462EA37
:101990000E0159406144DFF884C102EBB151CC44DF
:1019A000F44461EA030E8EEA020EDDF81090F4446E
:1019B000DFF86CE101EB7C4CCE449E446CEA020300
:1019C0004B407344DFF85CE10CEBF323C6449644D0
:1019D00063EA010282EA0C02DDF808807244A5F590
:1019E0008015DFF844E103EBB262A5F68335654468
:1019F000C64462EA0C0C8E448CEA030CF44402EBFD
:101A0000BC5C6CEA030151402944484DDDF818E004
:101A1000DDF814800CEB714125441D4461EA02039A
:101A200083EA0C032B44424D019C01EBF3237544E4
:101A3000154463EA0C024A402A443E4D03EBB2626D
:101A40003D4462EA01075F4065443D443A4F02EB82
:101A5000B55547440F4465EA030151403944374FB7
:101A600005EB7141374461EA02061F446E40344B76
:101A70003E4401EBF6265B441A4466EA05034B40FC
:101A80001344C26CDDF820B006EBB3631A44C264A1
:101A90002C4A5A44154463EA010272402A44856D77
:101AA00003EBB25215448565274D25440D4462EA87
:101AB00006015940294402EB714161EA03030A9C83
:101AC0005340426DDDF81CC00C4411441F4A41656F
:101AD00062443244134404EBF324046500200DB047
:101AE000BDE8F08F44EABEA4A9CFDE4B604BBBF645
:101AF00070BCBFBEC67E9B28FA27A1EA8530EFD412
:101B0000051D880439D0D4D9E599DBE6F87CA21FFD
:101B10006556ACC4442229F497FF2A43A72394AB0B
:101B200039A093FCC3595B6592CC0C8FD15D848541
:101B30004F7EA86FE0E62CFE144301A3A111084ECE
:101B4000827E53F735F23ABDBBD2D72A91D386EBCA
:101B50002DE9F843002874D00C469046054600292C
:101B60004DD000683F286FD86B68D3186B602CD2BB
:101B700005F10C0680BBB8F13F0F55D9A8F140071D
:101B800027F03F0740372744334604F1400ED4F88E
:101B900000C06068A168E268DA6010347445C3F878
:101BA00000C05860996003F11003F0D13146284617
:101BB000FFF73AFCBC428146E6D108F03F08B8F195
:101BC000000F27D14846BDE8F883AB680133AB600E
:101BD00005F10C060028CED0C0F14007474528BFCC
:101BE000474630443A46214607F0BAF92B683B4451
:101BF000402B2B601CD03C44A8EB0708BBE702BB82
:101C00000368402B34BF4FF000096FF0830948464A
:101C1000BDE8F88339463046424607F0A1F9C5F8D9
:101C200000804846BDE8F88327464FF00009C6E724
:101C300031462846FFF7F8FB81460028C2D12860CC
:101C4000D9E76FF0AC09BDE76FF08309BAE700BFD1
:101C500000284AD070B50D46002943D006460446F8
:101C600056F80C3B3F2B3AD85A1C02608022F254A3
:101C70000368382B26D8F018C3F13802002106F08B
:101C80003DFED4E901305A0F02EBC002DB003146C1
:101C90006364A2642046FFF7C7FBE16C636D226DAD
:101CA000A06D2960AB601249124BE8606A60C4E91C
:101CB0001313114A114B0020C4E915232060606002
:101CC000A06070BDC3F14002F018002106F016FEBE
:101CD00031462046FFF7A8FB30463822CEE76FF0AA
:101CE000830070BD6FF0AC0070BD6FF0AC0070474A
:101CF0000123456789ABCDEFFEDCBA9876543210EC
:101D000080B110B4094A0A4C0A49C0E913420A4A90
:101D100010BC0023C0E91512C365036043608360F3
:101D2000184670476FF0AC00704700BF89ABCDEF2D
:101D300001234567FEDCBA9876543210704700BF25
:101D400008B50346014802F065FBFEE7EC430210CC
:101D5000002000F0D3BD00BF012000F0CFBD00BFC8
:101D600010B5002000F060FB012000F05DFB40207A
:101D700000F05AFB104B022218684FF4E13101F0D9
:101D800055FD041E0CDB00F0EFF858B900F08CF89C
:101D9000044660B9094B0A484322DA6000F0C2FAEF
:101DA000204610BD074908486F22FFF7C9FF0549C3
:101DB00005487422FFF7C4FF0000002000440040E3
:101DC000400D0300084402106444021000BF704735
:101DD0004FF0FF30704700BF4FF0FF30704700BF3B
:101DE0004FF0FF30704700BF4FF0FF30704700BF2B
:101DF0004FF0FF30704700BFF8B5E0B9002A19DD99
:101E0000104D0E468F180C4602E0BB420FD01C4608
:101E1000284601F003FEC1B22170284601F000FE01
:101E200022780D2A04F10103EFD10A232370C6F1B1
:101E30000106A019F8BD06F083FE092303604FF0E8
:101E4000FF30F8BD00200440F8B5431E012B21D817
:101E5000002A174612DD531E124E4C1ECD1814F8E0
:101E6000013F0A2B0CD00F4801F0DEFD0028FAD00C
:101E70002178304601F0D4FDAC42F0D13846F8BDAF
:101E8000084801F0D1FD0028FAD00D21304601F0BC
:101E9000C7FDE8E706F054FE092303604FF0FF306A
:101EA000F8BD00BF00200440F8B50D4B1F68A7B176
:101EB00000250C4C2E46D4E9000100F0F1FC204630
:101EC00000F0E8FB0135002818BF6FF00706AF42AD
:101ED00004F10C04EFD13046F8BD3E463046F8BD63
:101EE0006C440210704402100B4B1B68834210B507
:101EF00004460BD9094B04EB440403EB840253F86A
:101F000024005168BDE8104000F0E0BC04490548D9
:101F10003B22FFF715FFEDE76C44021070440210FE
:101F2000B0440210F84402100B4B1B68834210B5FA
:101F300004460BD9094B04EB440403EB840253F829
:101F400024005168BDE8104000F0AABC04490548CF
:101F50004622FFF7F5FEEDE76C44021070440210D4
:101F6000B0440210F8440210F8B50B4B1F6887B15B
:101F700000240A4D2646284600F08CFB0134002838
:101F800018BF6FF00706BC4205F10C05F3D13046CF
:101F9000F8BD3E463046F8BD944402109844021005
:101FA000474885464748804780B94749474A484B94
:101FB0009B1A03DD043BC858D050FBDC4549464A18
:101FC00000209142BCBF41F8040BFAE74348804728
:101FD0004348804743488047FFF7FEFFFEE7FEE7A0
:101FE000FEE7FEE7FEE7FEE7FEE7FEE7FEE7FEE7C9
:101FF000FEE7FEE7FEE7FEE7FEE7FEE7FEE7FEE7B9
:10200000FEE7FEE7FEE7FEE7FEE7FEE7FEE7FEE7A8
:10201000FEE7FEE7FEE7FEE7FEE7FEE7FEE7FEE798
:10202000FEE7FEE7FEE7FEE7FEE7FEE7FEE7FEE788
:10203000FEE7FEE7FEE7FEE7FEE7FEE7FEE7FEE778
:10204000FEE7FEE7FEE7FEE7FEE7FEE7FEE7FEE768
:10205000FEE7FEE7FEE7FEE7FEE7FEE7FEE7FEE758
:10206000FEE7FEE7FEE7FEE7FEE7FEE7FEE7FEE748
:10207000FEE7FEE7FEE7FEE7FEE7FEE7FEE7FEE738
:10208000FEE7FEE7FEE7FEE7FEE7FEE7FEE7FEE728
:10209000FEE7FEE7FEE7FEE7FEE7FEE7FEE7FEE718
:1020A000FEE7FEE7FEE7FEE7FEE7FEE7FEE7FEE708
:1020B000FEE7FEE7FEE7FEE7FEE7FEE7FEE7FEE7F8
:1020C000000002208D210110C8B70210000000207E
:1020D000CC0B0020000C002068170020912101107B
:1020E000618E0110C9EB00100B4A08B50346106859
:1020F00028B10A4903448B4207D8136008BD084839
:102100000649106003448B42F7D906F019FD0C23F1
:1021100003604FF0FF3008BDC80C002000F0012024
:10212000701700204FF080439A6802F46062B2F5A5
:10213000206F20D011D9B2F5406F17D00F4B104946
:10214000B2F5606F18BF0B464FF080420D499268A0
:10215000C2F38212D3400B60704752B1084947F274
:102160003053B2F5C06F18BF0B46EDE74FF4004394
:10217000EAE7054BE8E74FF4E103E5E7C0687804D8
:1021800000E1F505681700200087930300207047E1
:1021900010B50A4C0A4BA3600A4801F0EDFAD4F8D6
:1021A000883043F47003C4F88830BFF34F8FBFF317
:1021B0006F8FFFF7B7FFFFF7D3FD10BD00ED00E015
:1021C00000E0001000A0024038B54FF0E0231849AD
:1021D0009C691A6922F480320A601A69D2071FD4F6
:1021E0006FF07F4405225C614FF080759C611A613D
:1021F000104B114A19680023A0FB01010FF0B2FB3C
:102200000E4BB0FBF5F205FB120084421A600AD8AF
:102210001A6801321A602544094B281A186038BD23
:102220005D690135E4E7064B201A186038BD00BF30
:10223000D00C00206817002040420F00040000204E
:10224000D40C002010B50C4C0C4B22681960002AED
:102250000EDC08B9002010BDFFF7B6FF2368002B85
:10226000F8DD4FF0E022136943F002031361F1E758
:102270006FF0050010BD00BF04000020CC0C002052
:10228000F8B5174C2368002B1EDB26682EBB154BB8
:102290004FF0E0251B68AA699A421ED8124F3B688E
:1022A0005BB16FF00F009847104B3E601A682A61CF
:1022B0004FF0FF3323600020F8BD0C4A4FF0FF338E
:1022C00012682A612360F6E7074C2368002BF2D0DE
:1022D0000020984700232360EDE76FF00500F8BD6C
:1022E00004000020D40C0020CC0C0020D00C0020D6
:1022F00010B5094C236823B16FF00F0098470023F5
:102300002360064A064B10684FF0E0214FF0FF3281
:1023100008611A6010BD00BFCC0C0020D00C00205A
:102320000400002038B5184C2268002A29DC08B9BE
:10233000002038BDFFF748FF4FF0E02202E01369AC
:10234000DB031AD42368002BF9DC104B1A684FF01A
:10235000E0218B699342FCD80D4D2B6823B16FF0BF
:102360000F00984700232B600A4B4FF0E0221968BA
:1023700011614FF0FF332360DAE72368013B2360EC
:10238000E0E76FF0050038BD04000020D40C002009
:10239000CC0C0020D00C0020F8B50F4E0F4BB268CB
:1023A0009A4204460D4600F1100707D018460C4922
:1023B0004FF4F07206F0D4FD0346B060002C43F8F1
:1023C000275007DB074A6109012304F01F04A340DB
:1023D00042F82130F8BD00BF00ED00E0000E002003
:1023E00000E0001000E100E03F2808D90D4A403825
:1023F000D168C0B2012383400B43D36070471F28CC
:102400004FF0804207D92038916CC0B2012383403D
:102410000B4393647047516A012383400B4353621B
:10242000704700BF000008403F2809D90E494038D6
:10243000CB68C0B20122824023EA0203CB6070471E
:102440001F284FF0804108D920388B6CC0B2012280
:10245000824023EA02038B6470474B6A0122824068
:1024600023EA02034B6270470000084010B50728BA
:102470000AD8DFE800F00C09092333475B04BDE804
:102480001040364800F006B96FF0020010BD4FF062
:1024900080440021A36843F48023A3604FF47A7042
:1024A000FFF7D0FE03E0FFF7EBFE063052D1A36842
:1024B0005901F8D5FFF71CFF002010BD00214FF493
:1024C0007A70FFF7BFFE4FF0804403E0FFF7D8FEBD
:1024D00006303FD1A3689A00ECD4F7E74FF0804470
:1024E0000021A36843F40023A3604FF47A70FFF740
:1024F000A9FE03E0FFF7C4FE06302BD1A3681B0141
:10250000F8D5D7E74FF080440021A36843F4801347
:10251000A3604FF47A70FFF795FE03E0FFF7B0FE7B
:10252000063017D1A368D800C4D4F7E74FF0804431
:102530000021A36843F40033A3604FF47A70FFF7DF
:1025400081FE03E0FFF79CFE063003D1A3689B01E8
:10255000B0D4F7E76FF0090010BD00BF5C45021072
:102560003F2809D940380F49C0B2012282408A6011
:102570008B681A42FCD170471F280AD92038C0B294
:1025800001224FF0804182404A644B6C1A42FCD1D8
:10259000704701224FF0804182404A604B681A42E6
:1025A000FCD1704700000840820733D100F170432E
:1025B000B3F5002F84460A4629D3A0F18453B3F51E
:1025C000804F27D220F00F03A3F18453B3F5804F3F
:1025D00020D243F6F073034003F5002300B50F4803
:1025E00083B0614619F088F84FF08042136843F0D9
:1025F0004003136013685B06FCD44FF08052084B15
:10260000126801921B68019303B05DF804FB054B4F
:102610000340E3E76FF00200704700BF0090024004
:1026200000200010F0FF070019F05AB819F05CB84C
:1026300000F000B810F4407306D0054A11684A6AE9
:10264000134300204B6270476FF00200704700BFD9
:1026500008000020C10710B5044608D4A2070BD417
:1026600063070ED42046BDE8104001F0BDBB00203A
:10267000FFF7DAFEA207F3D50120FFF7D5FE6307C7
:10268000F0D54020FFF7D0FE2046BDE8104001F015
:10269000ABBB00BF70B57F4B05689D42044637D089
:1026A00003F580539D4220D003F5EE2303F58063AC
:1026B0009D427FD07848281AB0FA80F04009C000C7
:1026C000FFF7C8FF744B22689A4215D06268217ADE
:1026D000284600F04BF9D0B9637A042B00F2D7807A
:1026E000DFE803F05A4C3E2F18000220FFF7B2FF3C
:1026F000694B22689A42E9D1237A012B00F0BB8012
:10270000022B00F0A580002B56D06FF0100070BD9A
:102710000120D5E72B6E626823EA02032B666B6EFD
:1027200013436B66D5F8B83023EA0203C5F8B83016
:10273000594BA17A9D4239D02846BDE8704000F03F
:10274000FFB82B6E626813432B666B6E23EA02039D
:102750006B66D5F8B83023EA0203C5F8B830E7E76E
:102760002B6E626823EA02032B666B6E13436B6663
:10277000D5F8B8301343C5F8B830D9E72B6E626886
:1027800013432B666B6E23EA02036B66D5F8B830F1
:102790001343C5F8B830CBE72B6E626823EA020317
:1027A0002B666B6E23EA02036B66C1E70029ACD08F
:1027B000002070BD042083E76368384958001A017F
:1027C0000E6A00F0020002F02002024326EA020232
:1027D0000A628A68C3F34003034322EA03038B605F
:1027E000637A042B91D8DFE803F0261B031B030058
:1027F00062682A49D300086A03F0100302F0010658
:10280000334320EA03030B6256019300086A03F086
:10281000040306F04006334320EA03030B6287E714
:102820001E4962680E6AD30002F0010003F0100333
:1028300030430343E7E76268184893005101066A92
:1028400003F0040301F040010B43334303626FE7DD
:102850006368124958001A010E6A00F0020002F083
:102860002002024332430A628A68C3F340030343EF
:1028700013438B60B4E76368084958001A010E6A75
:1028800000F0020002F0200202433243A0E76FF0A2
:10289000020070BD0080004000060840006C00404F
:1028A000084A904201D000F043B8074810B4046AC7
:1028B000CA0001F00101214302F010030B4310BCD8
:1028C0000362704700060840006C0040094A9042CD
:1028D00001D000F02FB810B4074CCA00206A02F0F3
:1028E000100201F0010142EA010320EA030323621E
:1028F00010BC704700060840006C004001F086BA2A
:10290000034A904201D000F017B8024AD1617047E3
:102910000006084000680040034B984201D000F0D8
:102920000DB8024BD86970470006084000680040A7
:10293000C16170470162704781647047006C7047E5
:1029400059B1012906D1D0F8C0301343C0F8C030C6
:10295000002070476FF002007047D0F8C03023EAC3
:102960000203C0F8C0300020704700BF036B134360
:102970000363426005292CD8DFE801F00A12191F11
:102980002503C0F888208267C266826000207047F5
:10299000426142600267C267C0F888200020704729
:1029A000026142600267C267C0F88820EEE7C0F8A3
:1029B0008820C26702678260E8E7C0F88820C267A3
:1029C000C2668260E2E7C0F88820826702678260A0
:1029D000DCE76FF00200704700F0FAB808B5114B61
:1029E00098420DD0104B984211D0104B984215D1FF
:1029F0003820FFF7F9FC3420FFF7B2FD002008BDB6
:102A00000D20FFF7F1FC1020FFF7AAFDF6E71C20D0
:102A1000FFF7EAFC2020FFF7A3FDEFE76FF00100CE
:102A200008BD00BF00D0014000E0014000F00140BF
:102A3000C0B370B504460D461646FFF7CFFF1B4BDB
:102A40009C4212D01A4B9C421CD01A4B9C4226D15D
:102A50003820FFF7E9FC1848FFF71CFE32462946EC
:102A60002046BDE8704000F04DB80D20FFF7DCFCBB
:102A70001248FFF70FFE324629462046BDE8704057
:102A800000F040B81C20FFF7CFFC0D48FFF702FE16
:102A9000324629462046BDE8704000F033B86FF05A
:102AA000010070BD4FF0FF30704700BF00D0014003
:102AB00000E0014000F0014038450210504502108E
:102AC0004445021000F09EB800F0ECB800F0FAB8EF
:102AD00000F00CB900F018B900F034B900F04AB9B0
:102AE00000F050B900F056B900F058B900F0C2B982
:102AF00000F090BA00F09EBA014B196800F008BED1
:102B00000C000020F8B5002857D00F4610211546BC
:102B10000446FFF7E9FF064608B13046F8BD2368D2
:102B200043F0010323602046FFF7D8FF2046FFF75C
:102B3000D7FF02212046FFF7DDFF06212046FFF7E1
:102B4000D7FFDFB123681E4A43F00203944223609B
:102B50002FD01C4B9C420FD003F580539C4214BFD6
:102B60004FF0FF340224184B04EB440403EBC4037E
:102B700001225A603046F8BD0124F4E73A4629465E
:102B80002046FFF729FF0E4B9C4209D003F58053E6
:102B90009C4210D00D4FBC4214BF4FF0FF370227AC
:102BA000094B07EB470103EBC10300225A60304693
:102BB000F8BD3446D7E70127F2E74FF0FF36ACE720
:102BC00000D0014000E001400810002000F001406A
:102BD0000346A0B16AB9B1F5806F0DD27F29C264F6
:102BE00084BF4FF40042C264C26C0A430020DA641E
:102BF00070476FF0100070476FF0020070474FF0A1
:102C0000FF30704700283FD010B4214AA1F574234B
:102C10006FF410742344934213D31E4B99422FD860
:102C20001D4B1B685B08B3FBF1F35B089A1EB2F502
:102C3000FF7F03F1FF3323D8436310BC8363FFF7A7
:102C400043BF154B154C1B685B08B3FBF1F14A0001
:102C5000A4FB01C14908A4FB0242013952080F2913
:102C600002F1FF320CDC0F2A0ADC090289B2D2B26F
:102C70000A43C26302680A4942F400420260D2E792
:102C80006FF0020010BC70474FF0FF30704700BF7C
:102C9000009F240040E1330068170020ABAAAAAAD5
:102CA000801A06000649436B826B0868C2F308026B
:102CB000C3F3080313444008B0FBF3F0704700BFB0
:102CC0006817002070B1036B13F0010F036B04D180
:102CD00043F0010303630020704743F002030363E2
:102CE000002070474FF0FF30704700BF48B1036BC2
:102CF00043F004030363036B13F00403FBD1184692
:102D000070474FF0FF307047C8B1C1B1AAB100B5EC
:102D1000002301F1FF3E07E0C16A01335FFA81FC45
:102D20009A420EF803C005D041688907F4D51846C9
:102D30005DF804FB10465DF804FB104670474FF049
:102D4000FF30704798B191B17AB1002301F1FF3C97
:102D500006E001339A421CF80310C9B2C16204D0E4
:102D60004168C906F5D518467047104670474FF0C0
:102D7000FF307047C36943F08003C361C3691B061A
:102D8000FCD47047436A43F080034362436A1B06E6
:102D9000FCD4704781600261704700BF002865D095
:102DA000036843F001032DE9F041036007680368FD
:102DB00043F480630E46044607F4806703600029ED
:102DC00043D000252BE0FFF7ADFA236823F0800302
:102DD00023600A20FFF7A6FA236813F400784FF067
:102DE0000A002BD1FFF79EFA236843F0800323608B
:102DF0000A20FFF797FA23689A054FF00A001DD5BD
:102E0000FFF790FA236843F0400323600A20FFF79E
:102E100089FA2368DB0525D40135AE4215D00A2096
:102E2000FFF780FA236823F0400323600A20FFF7AE
:102E300079FA2368D9054FF00A00C4D52368013513
:102E400043F0C003AE422360E9D16FF008001FB920
:102E5000236823F480632360236823F00103236045
:102E6000BDE8F0814046002FF6D1F1E74FF0FF308A
:102E7000704700BF2DE9F041D0E900437F2B00F2FD
:102E8000C380634B9C42054608D003F580539C42A7
:102E900004D003F580539C4240F0B08023689E0725
:102EA00040F1AF8007226FF07F412046FFF71AFE06
:102EB0002046FFF715FE2046FFF710FE6A69002343
:102EC000E360636142BBEA686B685B00E362236BAB
:102ED00043F0010300262363202704E0A36813F4D2
:102EE000FE4F11D1EA68964219D2A3689806F5D52B
:102EF000A968921B31442046FFF7EEFDA760A36846
:102F000013F4FE4F0644EDD0EE602046FFF7E0FDDF
:102F10006FF00800BDE8F081EA68002AD4D10022F1
:102F200011212046FFF7DEFD6B69002B4AD0B3F577
:102F3000807F88BF002323622046FFF7C7FD266BF2
:102F400016F00206FBD16B686A695B0043F001036F
:102F5000E362002A36D010274FF001081DE0A36875
:102F600013F4FE4329D1A1686A69C90713D59642B3
:102F7000A2EB06010FD9B1F5807F8CBF23622162DD
:102F8000236B43F0020323636B68C4F808805B0083
:102F900043F00103E362964214D2A36813F0110FC9
:102FA000DDD02969921B31442046FFF793FDA760CD
:102FB000A36813F4FE430644D5D06E612046FFF7A4
:102FC00087FDA5E7AB6973B1236B43F0020323636D
:102FD000A368DB07FCD54123A360A06810F4FE4082
:102FE00096D1BDE8F081236B43F004032363A3680B
:102FF0005A06FCD5A368DB07EAD5ECE76FF00200C0
:10300000EFE76FF00600ECE76FF01000E9E700BFB4
:1030100000D001408269D2B28A42034607D3C26916
:1030200022F4706242EA01210020D96170476FF0FA
:10303000020070478269C2F307228A42034607D31F
:10304000426A22F4706242EA01210020596270470C
:103050006FF00200704700BF2DE9F84FDFF898A22B
:10306000DFF898925AF8206059F82080054620B37E
:10307000012800F09C80A24CDFF888B202280CBF27
:10308000234600235BF820709B6813F4FE4F40F04A
:10309000B280FA68B24211462FD87B69434546D9BF
:1030A000A16811F0110F37D1B24200F0EB804AF85D
:1030B000256049F82580BDE8F88F934CDFF844B2CD
:1030C000A368DBF8007013F4FE4FE2D0A368A3609E
:1030D000236923612046E5606561FFF7F9FCDBF8B1
:1030E0000000C36913B16FF008019847E56065619E
:1030F000A368A3602369236196E0A368990600F1A1
:103100009880E36843F02003E3607B699845CED262
:10311000A16811F0110FC7D03969A3EB080241442F
:103120002046FFF7D7FC1023F968A3608044B14222
:10313000BDD17B69434540F0A5800023E360636116
:10314000A368A360BB6922692261002B40F0B380B1
:10315000236B43F004032363A36813F4FE4F6A4B0D
:1031600000F0BC809C4200F0DA8003F580539C4262
:1031700000F00581DBF80800C369002B00F0E38054
:103180006FF0080198470023E3606361A368A360C0
:103190005D4B226922619C4200F0CD805B4B9C42DA
:1031A00000F0E480022200234BF8223083E7574CE2
:1031B000DFF850B1A368DBF8047013F4FE4F3FF45E
:1031C00068AFA368A360236923610026E6602046F8
:1031D0006661FFF77DFCDBF80400C369002B00F09B
:1031E000C7806FF008019847E6606661A368A36036
:1031F0002369236118E0A368A36023692361002584
:10320000E56020466561FFF763FCDBF80800C369F1
:10321000002B7DD06FF008019847E5606561A368D9
:10322000A36023692361022500234BF82530BDE804
:10323000F88FB968921B31442046FFF74DFCFA68BD
:1032400006442023B242A3603FF65BAFE36823F05D
:103250002003E3607B697FF459AF002B3FF46AAF32
:10326000226B42F0020222630122A260E2689845CA
:1032700042F00102E260BFF45DAFA26812F0110FEC
:103280007FF44AAFA268D2077FF511AF0122A26096
:10329000B8F1000F14D17A685200B3F5807F42F084
:1032A0000102E2628CBFC4F820802362E36843F02D
:1032B0001103E360FBE6236B43F0020323634BE758
:1032C000A3EB0802B2F5807F88BF002298452262F6
:1032D000ECD3E36823F01103E360E8E69C422CD0D2
:1032E00003F580539C4236D0DBF80800C36953B322
:1032F0000021984747E700BFEC0F0020E00F0020B7
:1033000000F00140F80F002000D0014000E0014033
:10331000E3606361A368A3602369236183E7DBF84B
:103320000000C369002B7FF42BAFE3606361A368E7
:10333000A36023692361002235E7DBF80000C3693D
:10334000002BD5D1F1E7114AD360536193689360A4
:103350001369136126E7DBF80400C369002BC7D1AA
:10336000E3606361A368A3602369236101221AE714
:10337000E3606361A368A3602369236154E7DBF81A
:103380000400C369002B7FF4FBAEE9E700F00140C5
:103390002DE9F04715460E461268B249D0F808905C
:1033A000002711401F6004460768984600295AD13B
:1033B00019F4FE4F40F0CF80D30640F1A48119F0FC
:1033C000100F00F04881002E00F05C8100220221E5
:1033D0002046B0471023A3602369DA0705D50022F1
:1033E00006212046B047012323612A6848F22003C2
:1033F000134200F0DF8019F0200F09F4004A00F0BA
:10340000FC80002E00F04581032100222046B047B9
:103410002023A3602369990700F1F580BAF1000F1A
:1034200040F0FA8019F0400F00F06881C8F800A061
:10343000424604212046B0478B4A00234021944253
:10344000A1602B606B600AD0884B9C4200F03181F8
:1034500003F580539C420CBF02234FF0FF33844A94
:10346000002142F8231019F4800F11D01EB1002260
:1034700011462046B0474FF48003A3600823A360A1
:103480004FF40043A36047F611732B6001236B6078
:1034900019F4000F0ED01EB1002201212046B047C2
:1034A0004FF40003A3600823A3604FF620732B6042
:1034B00002236B6019F0080F17D017F4006200F0B8
:1034C0008C801EB1002201212046B0474FF48002BB
:1034D0000823A2604FF40041A3604FF6207202233C
:1034E000A1602A606B60BDE8F08719F4FE4FFAD046
:1034F0006FF00803C8F800301EB142460421204690
:10350000B04707236FF07F42A2602361636A43F0F4
:1035100080036362636A1B06FCD4E36943F08003A3
:10352000E361E36913F08003FBD14F4A2B609442BF
:103530006B600AD04D4B9C4200F0BF8003F5805376
:103540009C4214BF4FF0FF330223494A002142F846
:103550002310BDE8F0876FF00803C8F8003016B1FB
:1035600042460421B04707226FF07F412046FFF713
:10357000B9FA2046FFF7B4FA2046FFF7AFFA3A4A05
:10358000002394422B606B600AD0384B9C4200F0C1
:10359000928003F580539C420CBF02234FF0FF330F
:1035A000334A002142F823102A6848F220031342CC
:1035B0007FF421AF6B6898073FF51DAF19F0400FFE
:1035C0003FF451AF0023C8F80030002E3FF434AF71
:1035D000424604212046B0472EE716B11146204648
:1035E000B04708234FF40001A16047F61172A360B1
:1035F00001232A606B60BDE8F087236913F00203A2
:1036000038D0002E5BD0002205212046B04702238F
:103610002361BAF1000FD1D00023C8F80030424630
:1036200004212046B047104A00234FF40041944241
:10363000A1602B606B6009D00C4B9C4259D003F504
:1036400080539C420CBF02234FF0FF33084A0021F5
:1036500042F82310B2E72369DB07A6D5002E7FF4DA
:10366000BEAEC0E60800C00000D0014000E001404E
:10367000F80F0020BAF1000FA0D0C8F80030002EDB
:10368000D1D0CCE71023A3602369D9073FF5ABAEB7
:10369000ABE62023A36023699A0721D4BAF1000F77
:1036A00023D119F0400F26D119F4800F7FF4E3AE37
:1036B000EEE60123D3E6012372E7012345E7022367
:1036C0002361BAF1000F10D119F0400F13D119F492
:1036D000800F7FF4D0AE19F4000F7FF4E1AEE9E67D
:1036E00002232361BAF1000FDBD00023C8F80030B9
:1036F00099E70123AAE7C8F800609DE619F4800F56
:103700007FF4B5AEC4E66B68D8073FF558AE4CE71A
:1037100030B5174B984285B0044624D003F580534A
:10372000984205D003F5805398421ED005B030BDB5
:10373000012023689B0704D505B0BDE83040FFF7A2
:103740008BBCE5680B4B626953F82010CDE902523F
:1037500001AB02AA2046FFF71BFEDDE90223E2606F
:10376000636105B030BD0020E3E70220E1E700BF60
:1037700000D00140F80F002000F002B800F018B8A7
:10378000D0F80031012223F00103C0F80031C0F865
:103790000027D0F80031DA03FBD5D0F8003143F030
:1037A0000103C0F80031D0F80031DB03FBD57047CE
:1037B000D0F8003123F00103C0F80031704700BF9A
:1037C00008B5164B984210D0154B984214D0154BA3
:1037D000984218D0144B98421CD14420FEF7C0FEEA
:1037E0004420FEF701FE002008BD0B20FEF7B8FEC6
:1037F0000920FEF7F9FDF6E70C20FEF7B1FE0A20DE
:10380000FEF7F2FDEFE71C20FEF7AAFE2120FEF7EF
:10381000EBFDE8E76FF0020008BD00BF00200440A8
:1038200000300440004004400014084070B50446D5
:103830000E461546FFF7C4FFA8BB022D2DD0042D60
:1038400018D0204B9C421BD01F4B9C422CD01F4BAE
:103850009C4230D01E4B9C4223D11E48FEF71AFFDB
:103860004420FEF7E1FD2A4631462046BDE870407F
:1038700000F0F8B80620FEF7F9FD124B9C42E3D1A8
:103880001548FEF707FF0920FEF7CEFD2A46314610
:103890002046BDE8704000F0E5B80520FEF7E6FDE3
:1038A000CFE76FF0020070BD0C48FEF7F3FE0A2070
:1038B000FEF7BAFDD7E70A48FEF7ECFE2120FEF737
:1038C000B3FDD0E700200440003004400040044035
:1038D00000140840084502102C4502102045021033
:1038E00014450210314B984210B5044615D003F52B
:1038F0008053984211D003F5805398420DD003F5C0
:103900007533984206D10523022A436114D0042A54
:1039100032D08AB16FF0020010BD042AFAD02046DE
:1039200000F0D8F80028F7DD236843F40043236053
:1039300023681B03FCD510BD4FF4E103B3FBF1F387
:1039400001FB03F2C2F5E10213B1B2EB510F00D952
:103950000133174A1361106800F44030B0F5803F1E
:1039600005D0136813F4403FD4D14FF4E100104B5D
:103970001B69B0FBF3F0D5E7036843F480330360C1
:103980000368B1F5166F43F4001303600AD90023EE
:1039900043614FF48033B3FBF1F301FB03F2C2F553
:1039A0008032D1E701234361F3E700BF00200440E8
:1039B00000140840124B98421CD003F580539842E3
:1039C00018D003F58053984214D003F5753398420C
:1039D00012D1036803F44033B3F5803F05D0036888
:1039E00013F4403F08D14FF4E103064A1069B3FBDA
:1039F000F0F0704700F0BAB86FF00200704700BFF7
:103A0000002004400014084000F0F0B800F00EB9A7
:103A100000F030B900F084B900F09EB900F008B8A9
:103A200000F012B800F0B6B900F0B8B900F0BCB9B7
:103A300010B504462046FFF7F5FF0028FAD02046CF
:103A4000BDE81040FFF7E6BF38B504460D462046F6
:103A5000FFF7EAFF0028FAD029462046BDE83840A3
:103A6000FFF7DABF1A4B984270B504460D4616466A
:103A70000BD003F58053984207D003F5805398424A
:103A800003D003F5753398421FD101212046FFF77B
:103A9000CDFF00B170BD08212046FFF7B5FF00281B
:103AA000F8D101462046FFF7B3FF0028F2D10146C6
:103AB0002046FFF7ABFF0028ECD1324629462046CE
:103AC000FFF710FF00EAE07070BD6FF0020070BDFC
