:020000041000EA
:10E0000000000220992C0110C52A0110D72C011004
:10E01000D92C0110DB2C0110DD2C011000000000B8
:10E02000000000000000000000000000DF2C0110D4
:10E03000E12C011000000000E32C0110E52C011080
:10E04000E92C0110EB2C0110ED2C0110EF2C01102C
:10E05000F12C0110F32C0110F52C0110F72C0110FC
:10E06000F92C0110FB2C0110FD2C0110FF2C0110CC
:10E07000012D0110032D0110052D0110072D011098
:10E08000092D01100B2D01100D2D01100F2D011068
:10E09000112D0110132D0110152D0110172D011038
:10E0A000492A0110512A01101D2D01101F2D0110A8
:10E0B000212D0110232D0110252D0110272D0110D8
:10E0C000292D01102B2D01102D2D01102F2D0110A8
:10E0D000312D0110332D0110352D0110372D011078
:10E0E000392D01103B2D01103D2D01103F2D011048
:10E0F000412D0110432D0110452D0110472D011018
:10E10000492D01104B2D01104D2D01104F2D0110E7
:10E11000512D0110532D0110552D0110572D0110B7
:10E12000592D01105B2D01105D2D01105F2D011087
:10E13000612D0110632D0110652D0110672D011057
:10E14000692D01106B2D01106D2D01106F2D011027
:10E15000712D0110732D0110752D0110772D0110F7
:10E16000792D01107B2D01107D2D01107F2D0110C7
:10E17000812D0110832D0110852D0110872D011097
:10E18000892D01108B2D01108D2D01108F2D011067
:10E19000912D0110932D0110952D0110972D011037
:10E1A000992D01109B2D01109D2D01109F2D011007
:10E1B000A12D0110A32D0110A52D0110A72D0110D7
:10E1C000A92D0110AB2D0110AD2D0110AF2D0110A7
:10E1D000B12D0110B32D0110B52D0110B72D011077
:10E1E000000000000000000000000000000000002F
:10E1F000000000000000000000000000000000001F
:10E2000000488047992C01100348044B834202D0F8
:10E21000034B03B118477047CC0B0020CC0B0020F8
:10E22000000000000548064B1B1AD90F01EBA301A3
:10E23000491002D0034B03B118477047CC0B0020A4
:10E24000CC0B00200000000010B5064C237843B929
:10E25000FFF7DAFF044B13B10448AFF3008001234A
:10E26000237010BD000C00200000000080C50210CB
:10E2700008B5054B1BB105490548AFF30080BDE863
:10E280000840FFF7CFBF00BF00000000040C0020D3
:10E2900080C502100000000010B562B61A4C00F0F4
:10E2A0001DFE88221948214600F032FE184B2268D4
:10E2B0009A421CD0174806F029FF174809F05AFE69
:10E2C000164806F023FF164B1B6898680AF02EF9D3
:10E2D00009A1D1E900010AA3D3E90023C4E900019F
:10E2E000C4E9022309488822214600F013FEBDE854
:10E2F000104000F0F7BC00BFEFBEADDE0200000032
:10E300002077889921778899200C002000C0071079
:10E31000EFBEADDEC0290210CC290210E8290210A0
:10E32000980500202DE9F047DFF8DCA0374EDAF839
:10E330000430ADF5007DDBB1DFF8D490DFF8D48098
:10E34000354F0AF104050024484606F0DFFE55F873
:10E35000041F404606F0DAFE384606F0D7FE336862
:10E3600098680AF0E3F8DAF804300134A342EBD8F5
:10E37000274DDFF8A880284F08241FE08DF800E122
:10E3800000F0B4FC034601336946204612D000F089
:10E39000C7FC0346002B28460CDD06F0B7FE0099AB
:10E3A000404606F0B3FE384606F0B0FE3368986883
:10E3B0000AF0BCF80134E4B2782C13D0A4F11803AD
:10E3C000DBB2DFF85CC04FF0010E1E2B40AA714695
:10E3D00020462CFA03FCD1D81CF0010FCED0744497
:10E3E000E4B2EBE70F4806F091FE0F4809F0C2FDDA
:10E3F000094806F08BFE336898680AF097F8002009
:10E400000DF5007DBDE8F087200C00209805002068
:10E41000EC290210F8290210E8290210042A02103F
:10E4200001000140102A02101C2A02102DE9F041BF
:10E43000244F7B68ADF5007D002B37D03D1D0026B5
:10E440004FF0020803E07B680136B3422ED955F83D
:10E45000040F00F049FC012140AA04468DF8008118
:10E4600000F044FC034601336946204623D000F007
:10E4700057FC01301FD0009A2B689A42E3D0023635
:10E48000114806F043FE114857F8261006F03EFEEC
:10E490000F4806F03BFE0F4B1B6898680AF046F8E1
:10E4A0004FF0FF300DF5007DBDE8F08100200DF547
:10E4B000007DBDE8F081044806F028FE064809F01A
:10E4C00059FDE5E7200C0020242A0210502A0210F2
:10E4D000E829021098050020302A02102DE9F04F9B
:10E4E000294F7B68ADF5017DA3B3DFF8A080DFF88D
:10E4F000A090DFF8A0B0DFF8A0A03E1D002556F8E0
:10E50000040F00F0F1FB0323012140AA04468DF81B
:10E51000003100F0EBFB034601336946204605F16C
:10E5200001051CD000F0FCFB03460133484616D021
:10E5300006F0ECFD31686A46584606F0E7FD5046A5
:10E5400006F0E4FDD8F80030986809F0EFFF7B682A
:10E55000AB42D4D800200DF5017DBDE8F08F0F4807
:10E5600006F0D4FD0E4809F005FD0B4806F0CEFD7F
:10E57000D8F80030986809F0D9FF4FF0FF300DF55A
:10E58000017DBDE8F08F00BF200C00209805002021
:10E59000EC290210702A0210E8290210242A021025
:10E5A0007C2A021030B5ADF5017D044600F09CFBDD
:10E5B000042340AA012105468DF8003100F096FBA6
:10E5C000013026D06946284600F0AAFB013020D051
:10E5D000184806F09BFD21461748184C06F096FD9A
:10E5E000174806F093FD2368986809F09FFF1148CB
:10E5F00006F08CFD6946134806F088FD104806F0C9
:10E6000085FD2368986809F091FF00200DF5017DD4
:10E6100030BD0D4806F07AFD0C4809F0ABFC084807
:10E6200006F074FD054B1B68986809F07FFF4FF0FA
:10E63000FF30EBE7EC290210982A02109805002021
:10E64000E8290210A42A0210242A0210A82A021083
:10E6500010B5002090B004AA10216B46CDE904004B
:10E66000CDE906003C483D4C00F0C8FB3C4806F0B4
:10E670004DFD3C4806F04AFD3B4806F047FD236847
:10E68000986809F053FF364806F040FD10216846AF
:10E6900000F09CFB344806F039FD2368986809F0C7
:10E6A00045FF08AA1021684600F0FEFB2C4806F042
:10E6B0002DFD2E4806F02AFD2B4806F027FD236885
:10E6C000986809F033FF264806F020FD102108A8BD
:10E6D00000F07CFB244806F019FD2368986809F0D7
:10E6E00025FF0CAB04AA1021684600F0B1FB1C48C2
:10E6F00006F00CFD0CA91E4806F008FD1A4806F0AD
:10E7000005FD23681B4C986809F010FF002004F0F9
:10E7100067FA204604F082FC012004F061FA2046EA
:10E7200004F07CFC022004F05BFA204604F076FC46
:10E73000002004F075FA204604F070FC012004F07B
:10E740006FFA204604F06AFC022004F069FA2046C1
:10E7500004F064FCDAE700BFC42A02109805002028
:10E76000C0290210D42A0210E8290210E82A021057
:10E77000F82A021020A1070010B58EB0194801A98F
:10E7800000F0F6FA184B019A9A4212D0174806F098
:10E79000BDFC174809F0EEFB164806F0B7FC164B17
:10E7A0001B6898684FF0FF3409F0C0FE20460EB099
:10E7B00010BDBDF8082043F233339A42E6D19DF8EC
:10E7C0000A40002CE2D10D4806F0A0FC0C4809F0EC
:10E7D000D1FB084806F09AFC074B1B68986809F0C3
:10E7E000A5FEE3E7102B021035393432242A02103B
:10E7F000342B0210E829021098050020C0290210CD
:10E80000242B021010B58EB0154801A900F0B0FA03
:10E81000144901A80BF014F888B90446124806F010
:10E8200075FC124809F0A6FB114806F06FFC114B6D
:10E830001B68986809F07AFE20460EB010BD0E489D
:10E8400006F064FC0D4809F095FB094806F05EFCF3
:10E85000084B1B6898684FF0FF3409F067FEEBE740
:10E86000442B0210542B0210C0290210682B0210F6
:10E87000E829021098050020242A0210782B0210A3
:10E8800010B5FFF7D3FDF8B92648274C06F03EFC3B
:10E89000264809F06FFB264806F038FC2368986884
:10E8A00009F044FEFFF71AFEF0B1224806F02EFCF4
:10E8B000214809F05FFB1E4806F028FC2368BDE8EC
:10E8C0001040986809F032BE1A4806F01FFC1B4839
:10E8D00009F050FB164806F019FC134B1B68BDE805
:10E8E0001040986809F022BE154806F00FFC154943
:10E8F000154806F00BFC0E4806F008FC23689868E3
:10E9000009F014FE114806F001FC114809F032FB31
:10E91000074806F0FBFB2368986809F007FEFFF73D
:10E9200097FE00BFC029021098050020AC2B0210F2
:10E93000E8290210242A0210C82B0210882B02108A
:10E94000EC290210E82B0210FC2B0210102A0210F6
:10E95000042C021070B590B0FFF754FF08B110B04E
:10E9600070BD044603A92F482F4ECDE9014400F0A5
:10E97000FFF901AA2D4903A809F012FE2C4803A9AA
:10E9800000F0F6F9294902AA03A809F009FE716806
:10E99000002935D0029D331D204602E00130884217
:10E9A0002ED053F8042FAA42F8D1831C019A214893
:10E9B00046F8232000F0AAFA1B491E481E4C882264
:10E9C00000F0A8FA1D4806F0A1FBDDE901211C4872
:10E9D00006F09CFB1B4806F099FB2368986809F039
:10E9E000A5FD194806F092FB184809F0C3FA15482E
:10E9F00006F08CFB2368986809F098FD10B070BD94
:10EA0000134806F083FB0299124806F07FFB0D487D
:10EA100006F07CFB084B1B68986809F087FD10B076
:10EA200070BD00BF0C2C0210200C0020202C021006
:10EA3000242C021000C0071098050020C0290210E5
:10EA4000382C0210E8290210102A0210582C02104B
:10EA5000242A0210602C021000B58FB0FFF78CFE44
:10EA600010B10FB05DF804FB0F4801A900F080F968
:10EA70000E496A4601A809F093FD0098FFF792FD40
:10EA80000028EED10A4806F041FB0A4809F072FA64
:10EA9000094806F03BFB094B1B68986809F046FDE6
:10EAA0000FB05DF804FB00BF982C0210202C021060
:10EAB000102A0210A82C0210E82902109805002044
:10EAC0002DE9F041ADF58B5D84B00C462949174620
:10EAD000984609F065FF90B327490546204609F09E
:10EAE0005FFF0646002838D0002200924346394690
:10EAF0004FF4807203A802F049FB07E002F054FBD8
:10EB00003346224601215CA80AF02EFA4FF48052C7
:10EB100001212B465CA80AF025F804465CA9002CCC
:10EB20000A4603A8EADC284609F098FA304609F0BC
:10EB300095FA00200DF58B5D04B0BDE8F0810F4B18
:10EB40000F481B682122DB6801210AF00DFA012021
:10EB50000DF58B5D04B0BDE8F081284609F07EFA22
:10EB6000064B08481B682222DB6801210AF0FCF9E9
:10EB7000EDE700BFB02C0210D82C02109805002041
:10EB8000B42C0210DC2C02102DE9F04FA3B000AF22
:10EB9000FFF782FB4248DFF80CB1434E434DDFF8EC
:10EBA0001081DFF81091DFF810A106F0AFFA4348AA
:10EBB00009F0E0F9424806F0A9FADBF8003098685D
:10EBC00009F0B4FC07F12401304600F0D1F87B6A6B
:10EBD000AB426C463DD07B6A434546D07B6A4B4591
:10EBE0004AD07B6A53454ED0364806F08FFA07F17B
:10EBF0002401354806F08AFA314806F087FADBF836
:10EC00000030986809F092FCDFF8C0E0BEE80F0021
:10EC100007F1100CACE80F0088B0DEF800308CF87B
:10EC20000030384603F0FEFB20226946384603F0E8
:10EC3000C5FA384603F014FA2549264807F11003AF
:10EC40006A46FFF73DFF58B9234809F093F9A546F6
:10EC5000B8E797F82830002BBDD1FFF763FBD3E767
:10EC60001E4809F087F9A546ACE797F82830002B35
:10EC7000B4D1FFF705FEC7E7BB6A194A9342B0D18A
:10EC8000FFF768FEC0E73A8D47F273439A42ABD173
:10EC900097F82A30002BA7D1FFF7DEFEB4E700BFBC
:10ECA000EC29021098050020202D02106C69737465
:10ECB000626F6F747265706C61747465002D021000
:10ECC000E8290210242A0210502D0210382E0210BA
:10ECD0006C2D0210B82D0210042E0210202E0210EE
:10ECE0006163650000F022B9C0B2704770B5044698
:10ECF0000D46164600F09EF900280DDB33462A46E5
:10ED00000021204600F0E4F9002805DB012120461F
:10ED100000F074F9C01770BD4FF0FF3070BD00BF38
:10ED200070B504460E4602E00CD004F077F9204698
:10ED300000F020F900284FF03200F5DA4FF0FF35EF
:10ED4000284670BD204600F037F9051EF6DB334635
:10ED5000EAB20321204600F0A3F90028EEDB0121EE
:10ED6000204600F081F90028E8DB284670BD00BF8E
:10ED700070B505461048114E0C4606F0C7F92846F6
:10ED800006F0C4F90E4806F0C1F93368986809F036
:10ED9000CDFB002009F0CAFB0A4806F0B7F933683A
:10EDA000986809F0C3FB20460AF012FBBDE87040EA
:10EDB000054809F0DFB800BFC029021098050020FF
:10EDC000E82902104C2E0210942C021081B170B56B
:10EDD0000144094E441E4D1E14F8011F304606F032
:10EDE00095F9AC42F8D1BDE870400A2009F062B84C
:10EDF0000A2009F05FB800BF582E02102DE9F0413B
:10EE00000C46DCB009B31E4611F00F031DD11146AC
:10EE100005460093102203A802F0B8F9804680B995
:10EE2000012C04F1FF370CD0044601E0A74208D9B9
:10EE30002A19311903A8103402F0B6F90028F5D0C8
:10EE4000804640465CB0BDE8F0814FF0FF38F8E7FF
:10EE50002DE9F041DCB019B31E4611F00F030C464A
:10EE60001ED11146012200920546102203A802F08D
:10EE70008DF9804680B9012C04F1FF370CD004468F
:10EE800001E0A74208D92A19311903A8103402F069
:10EE9000A3F90028F5D0804640465CB0BDE8F0817B
:10EEA0004FF0FF38F8E700BF02F0AEB9094A536AE5
:10EEB000D90703D5516A21F0010151629B0700D4A3
:10EEC0007047044A0448536A23F00203536209F06E
:10EED00051B800BF00900240602E021008B50849EA
:10EEE000172004F0D5F8074B4FF400021A604FF4D6
:10EEF000407004F019FABDE80840034805F0BABABA
:10EF0000ADEE001000E100E000A002401DF034BBB7
:10EF100004F008BA0B4611461A4604F001BA00BFC5
:10EF2000014804F065BC00BF00E0014010B50C488A
:10EF30000022012104F0F8FB044660B909490848A1
:10EF400004F03CFC0849242004F0A2F8074B1022EE
:10EF50005A60204610BD064809F00CF8204610BD46
:10EF600000E00140A086010021EF001000E100E078
:10EF7000882E021010B50F498AB00424CDE9021082
:10EF8000002301228DF806400DF107010DF1060462
:10EF900002A8CDE90442CDE90612CDE908338DF887
:10EFA000073004F01FFC0028A8BF9DF807000AB036
:10EFB00010BD00BF00E0014010B50F498AB0052424
:10EFC000CDE90210002301228DF806400DF1070162
:10EFD0000DF1060402A8CDE90442CDE90612CDE9FF
:10EFE00008338DF8073004F0FDFB0028A8BF9DF81A
:10EFF00007000AB010BD00BF00E0014030B58BB083
:10F0000005460B4A0292012000238DF8040001AA54
:10F01000022402A8CDE90424CDE90633CDE9083362
:10F020008DF80510039504F0DDFB0BB030BD00BF7B
:10F0300000E0014010B58AB004460A488DF805107A
:10F0400000230222029001A902A8CDE90412CDE911
:10F050000633CDE908338DF80420039404F0C2FB95
:10F060000AB010BD00E0014030B58BB005460B4A38
:10F070000292042000230DEB00028DF8040002240C
:10F0800002A8CDE90424CDE90633CDE908338DF893
:10F090000510039504F0A6FB0BB030BD00E0014065
:10F0A00030B58BB0094D8DF8071003900DF10701B5
:10F0B0000120CDE90410002402A8CDE90632CDE9F3
:10F0C0000844029504F08EFB0BB030BD00E0014017
:10F0D00070B5CAB08C46054619460DF12500144698
:10F0E0008DF824C00AF0A4FD084B019309AE00235B
:10F0F000013401A8CDE90533CDE907330295049425
:10F10000039604F06FFB4AB070BD00BF00E0014001
:10F110002DE9F04F87B00D684F688E68CC68CDE957
:10F12000003203682DBA5D4043683FBA5F40836890
:10F1300036BA5E40C368F9B2F2B224BA5C4001F557
:10F140004071EA4B02F540725FFA84FE53F8218069
:10F1500053F822100EF5407E2A0E53F82EE053F895
:10F1600022205FFA85FC82EA0E020CF5407C4FEA11
:10F17000176E53F82CC053F82EE08EEA0C0E4FEAAF
:10F18000166C53F82CC08CEA080C4FEA146853F83C
:10F19000288088EA0101C7F30748C7F3072707F566
:10F1A0000077029153F827B00169C6F30747C6F309
:10F1B000072606F5007608F5807853F8269053F870
:10F1C00028A0C4F30746C4F3072407F5807704F5A5
:10F1D00000744A40416953F8278053F8247006F5BB
:10F1E0008076C5F30744C5F307258EEA010E05F5C1
:10F1F0000075816953F8266053F825508CEA010C9C
:10F2000004F580748CEA060C8CEA050C53F8244053
:10F21000C56902996940614081EA0B01CCB28EEA6E
:10F22000080E04F540748EEA070E53F82450CEF30E
:10F23000074404F5807482EA0A0253F824705FFAE6
:10F240008EF404F5407482EA090203945FFA8CF4A8
:10F2500004F54079140ED6B2C2F3074BC2F307226D
:10F2600053F82440CDF8149002F500720492CCF3C8
:10F270000728026A08F500786C4054404FEA1E697E
:10F280007C4006F5407653F8287053F82660039AC0
:10F29000CEF3072E67400EF5007A53F82940DDF8CB
:10F2A000149053F82AA04FEA1C6ECCF3074C0CF5CF
:10F2B000807574404FEA116C53F82E6053F822E0C9
:10F2C0000295029A53F82CC086EA0E0653F829E0FC
:10F2D000C1F30745C1F3072101F500718CEA0E0C5B
:10F2E00053F822E0049A53F8219053F82210426A0E
:10F2F00005F580755440826A53F8258056400BF519
:10F30000807B86EA08064E40C16A53F82B508CEA8F
:10F31000010C8CEA050C8CEA0A0C5FFA8CF284EA88
:10F320000E0402F5407284EA090453F82210C4F373
:10F33000074202F5807253F822A0C6F3072202F5B5
:10F34000007253F822500295FAB202F5407253F857
:10F350002250C6F3074202F5807253F8222003922E
:10F36000CCF3072202F5007253F822E0CDF810E04A
:10F37000E2B202F540725FFA86FE53F822B0CCF397
:10F38000074202F580724FEA1C6C53F8229053F842
:10F390002C20C7F3072C0CF5007C360E53F82C807C
:10F3A00053F826604FEA176C86EA0B0653F82CB028
:10F3B000C7F307478BEA010B07F58071270E0EF59F
:10F3C000407E53F8277087EA050C056B8BEA050B26
:10F3D000029D8BEA0A076F40456B8CEA050C039D82
:10F3E0008CEA050C049D8CEA050C856B6E4053F885
:10F3F0002E50C4F3072482EA050E04F5007453F876
:10F400002150C16B53F824208EEA010E8EEA050EBE
:10F410008EEA020E5FFA8EF202F5407286EA090663
:10F4200053F82210FAB202F5407286EA080653F841
:10F4300022805FFA8CF202F5407253F82250F2B249
:10F4400002F5407253F822403A0E53F82220514000
:10F450004FEA1C6253F8222082EA08024FEA16683B
:10F4600053F8288088EA05054FEA1E6853F828807B
:10F4700088EA0404CCF30748CCF3072C08F580781D
:10F480000CF5007C53F828B0029453F82C400394F8
:10F49000C6F3074C0CF5807CC6F3072606F500760C
:10F4A00053F82C90046C53F826A0CEF3074CCEF3FF
:10F4B000072E0EF500766140446C53F826800CF55B
:10F4C000807CC7F30746C7F30727624007F500773C
:10F4D000846C53F82CE053F82770654085EA0E05DC
:10F4E00006F580767D40029CC76C01E0A43F0210C7
:10F4F00053F826607C40039F74407C40E6B282EA69
:10F50000090206F5407682EA080253F82670C2F333
:10F51000074606F5807681EA0B0153F826C0CDF840
:10F5200008C0C5F3074C0CF5807B5FFA82FC81EACA
:10F530000A01C5F307260CF540795FFA85FC2D0E0C
:10F5400004950D0E06F5007653F8255053F826E085
:10F55000CDF80CE0CEB26F4006F54076150E53F8AC
:10F56000266053F8255053F829907540066D774072
:10F57000029E7740039E7740466D754053F82B609E
:10F58000DDF810B04FEA1468C4F3074EC4F3072443
:10F590000CF5407A754004F5007453F82B60C1F304
:10F5A000074CC2F30722C1F3072186EA090902F5D5
:10F5B000007253F8286053F82A8053F824400EF55F
:10F5C000807E01F5007153F82EA00CF5807C85EA51
:10F5D000040E53F8214053F82210826D86EA080683
:10F5E00053F82C8089EA020CC26D564086EA080660
:10F5F0004E40F2B202F540728CEA0A0C53F82280B7
:10F60000FAB202F540728CEA040C53F822505FFA09
:10F610008EF202F5407253F822405FFA8CF202F546
:10F62000407253F822103A0E53F8222082EA080260
:10F630004FEA1E6853F8288088EA05054FEA1C68DF
:10F6400053F8288088EA04044FEA166853F82880A3
:10F6500088EA0101CEF30748CEF3072E0EF5007EAF
:10F66000029153F82E100391CCF3074ECCF3072CE4
:10F670000CF5007C016E53F82CA0C6F3074CC6F3C2
:10F68000072608F5807806F500764A40416E53F863
:10F6900028B053F826800EF5807E0CF5807CC7F3E9
:10F6A0000746C7F307274D4007F50077816E53F8EB
:10F6B0002E9053F82CE053F827704C4084EA0E0447
:10F6C00006F580767C400299C76E53F82660794033
:10F6D000039F7140794082EA0B0285EA090582EABC
:10F6E0000A0285EA08055FFA81F8170E08F54078E6
:10F6F0005FFA82FEE6B253F8279053F828700EF5B1
:10F70000407E5FFA85FC06F540760CF5407C53F8A8
:10F7100026B053F82C8089EA07072E0E53F82E9056
:10F7200053F82660C5F3074EC5F307254FEA146C5E
:10F730000EF5807E05F5007553F82EA053F82CC009
:10F7400053F825E0C4F30745C4F3072404F5007417
:10F750008CEA080C4FEA116886EA090653F82490EF
:10F7600053F82880C1F30744C1F3072105F58075DC
:10F7700004F5807401F5007188EA0B0B53F82580BD
:10F7800053F8245053F82140C2F30741C2F3072233
:10F7900002F5007201F5807153F822200292026F87
:10F7A00053F821105740426F564086EA08066640DB
:10F7B000846F029A8CEA040CC46F8CEA050C8BEA05
:10F7C00004048CEA020C4C4072465440E2B202F54A
:10F7D000407287EA0A0753F82250C6F3074202F53F
:10F7E000807287EA090753F822200292CCF307229D
:10F7F00002F50072C7F3074953F822100391FAB2D9
:10F8000002F5407209F5807953F82210CCF30742D3
:10F8100002F5807253F822E0CDF810E0C4F307221D
:10F8200002F500725FFA8CFE53F82280CDF8148046
:10F83000F2B202F540724FEA1C6C53F8222053F8E2
:10F840002CC08CEA02024FEA176CC7F3072753F863
:10F850002CB08BEA050B350E07F5007C53F82550CC
:10F86000029F85EA010AD0F880508BEA050B039DC0
:10F870008BEA07076F40D0F884508AEA050A049D96
:10F880004FEA14688AEA050AC4F30744059D53F851
:10F890002880C6F3072604F5807406F500718AEA0D
:10F8A0000506D0F8885053F8244053F821100EF57F
:10F8B000407E6A4053F82E5082EA040E53F82C2002
:10F8C00053F829408EEA020ED0F88C2088EA05050C
:10F8D00085EA020C8CEA040C8CEA010C5FFA8CF2CB
:10F8E00002F540724FEA176853F8221053F8288047
:10F8F000FAB202F5407288EA01014FEA166853F83D
:10F90000225053F82880F2B202F5407288EA0505C9
:10F910004FEA1E6853F8224053F828805FFA8EF2AF
:10F9200088EA040402F540724FEA1C6853F822206A
:10F9300053F8288088EA0202C6F30748C6F3072670
:10F9400006F50076029253F826200392CEF307467E
:10F9500006F58076CEF3072E53F82690CCF30746B3
:10F9600008F580780EF5007E06F5807653F828B00D
:10F9700053F82EA053F826E0D0F890205140D0F84C
:10F980009420C7F30746C7F30727554007F50077CC
:10F99000D0F8982053F82770544006F5807684EA12
:10F9A0000E04029A53F826607C40D0F89C70CCF389
:10F9B000072C7A400CF5007C7240009E53F82C8096
:10F9C000039F81EA0B0185EA0905052E81EA0A01F8
:10F9D00085EA080582EA070240F2ED81D6B206F513
:10F9E0004076C5F3074E53F82670CEB206F5407642
:10F9F0000EF5807E53F826C0EEB206F5407653F839
:10FA00002680E6B206F5407653F826B00E0E53F87F
:10FA1000266077402E0EC5F3072553F8266005F5BE
:10FA2000007586EA0C064FEA146C53F825A053F8CB
:10FA30002CC0C4F30745C4F3072404F500748CEA12
:10FA4000080C4FEA126853F8249053F82880C2F348
:10FA50000744C2F3072205F5807502F5007288EAB3
:10FA60000B0B53F82E8053F825E053F82250C1F3C6
:10FA7000074202F5807204F5807453F82220029246
:10FA8000D0F8A02053F824405740D0F8A420564086
:10FA900086EA0E06C1F30721754001F50071D0F822
:10FAA000A86053F82110029A8CEA060C8CEA040C28
:10FAB0008CEA010CD0F8AC108BEA01065640524695
:10FAC0005640F2B202F54072CCF3074453F82210CC
:10FAD000C5F3074202F5807204F5807453F822B032
:10FAE00053F824400394CCF30722C6F3072402F50D
:10FAF000007287EA080704F5007487EA090753F8DB
:10FB0000222053F824E00292ECB2FAB2CDF810E0D1
:10FB100002F540725FFA8CFE04F540744FEA1C6CEB
:10FB200053F8222053F8244053F82CC08CEA0404E4
:10FB30004FEA176C4FEA166853F82CC053F8288028
:10FB40008CEA01014FEA156CC6F3074653F82CA066
:10FB50008AEA020AD0F8B0205140029A81EA0B01E9
:10FB60005140D0F8B4208AEA020A039A8AEA020ACB
:10FB7000049AC5F3072506F5807605F5007CC7F3E2
:10FB800007498AEA0205C7F30727D0F8B82053F8D7
:10FB9000266007F500770EF5407E5440744053F818
:10FBA000276053F82E2053F82C7009F580797440A3
:10FBB000D0F8BC6053F829E088EA02027240009E47
:10FBC00082EA0E02062E82EA070200F0F480D6B224
:10FBD00006F54076C5F3074E53F82670CEB206F50B
:10FBE00040760EF5807E53F826C0EEB206F54076DC
:10FBF00053F82680E6B206F5407653F826B00E0E8E
:10FC000053F8266077402E0EC5F3072553F826607B
:10FC100005F5007586EA0C064FEA146C53F825A02A
:10FC200053F82CC0C4F30745C4F3072404F500744B
:10FC30008CEA080C4FEA126853F8249053F8288095
:10FC4000C2F30744C2F3072205F5807502F500727E
:10FC500088EA0B0B53F82E8053F825E053F8225016
:10FC6000C1F3074202F5807204F5807453F8222034
:10FC70000292D0F8C02053F824405740D0F8C42056
:10FC8000564086EA0E06C1F30721754001F5007162
:10FC9000D0F8C86053F82110029A8CEA060C8CEA5E
:10FCA000040C8CEA010CD0F8CC108BEA010656400B
:10FCB00052465640F2B202F54072CCF3074453F874
:10FCC0002210C5F3074202F5807204F5807453F8E0
:10FCD00022B053F824400394CCF30722C6F3072440
:10FCE00002F5007287EA080704F5007487EA09073D
:10FCF00053F8222053F824E00292ECB2FAB2CDF885
:10FD000010E002F540725FFA8CFE04F540744FEA91
:10FD10001C6C53F8222053F8244053F82CC08CEA72
:10FD200004044FEA176C4FEA166853F82CC053F8D6
:10FD300028808CEA01014FEA156CC6F3074653F898
:10FD40002CA08AEA020AD0F8D0205140029A81EA17
:10FD50000B015140D0F8D4208AEA020A039A8AEAB9
:10FD6000020A049AC5F3072506F5807605F5007C9E
:10FD7000C7F307498AEA0205C7F30727D0F8D82056
:10FD800053F8266007F500770EF5407E5440744026
:10FD900053F8276053F82E2053F82C7009F580791A
:10FDA0007440D0F8DC6053F829E088EA020272401F
:10FDB00082EA0E027A40D6B206F580764FEA1469DE
:10FDC00013F826C0C5F3074606F5407609F5007915
:10FDD00053F8266053F8299006F47F080E0E06F5B6
:10FDE00000765FFA84FA53F8266006F07F4648EA08
:10FDF0000608CEB206F580760AF5807A13F82670EA
:10FE0000C4F3074606F54076C4F3072453F826608A
:10FE100006F47F0E2E0E06F5007609F07F4953F8A2
:10FE2000266006F07F464EEA060EEEB2C5F30725C1
:10FE30004FEA126B53F8255005F47F450295C2F343
:10FE4000074505F54075C2F3072253F8255053F8CE
:10FE5000222005F47F0545EA090553F8249013F89C
:10FE60002A40C1F3074A0BF5007B06F58076C1F303
:10FE700007210AF5407A13F8266053F8211053F849
:10FE80002AA053F82B3002F47F4B009A0AF47F0A21
:10FE900003F07F434AEA030300EB421A520109F4DC
:10FEA0007F4982588CEA020CDAF804205740DAF8CD
:10FEB00008205640DAF80C205440029A01F47F41A1
:10FEC0008CEA090C87EA0B074E40544001998CEAF2
:10FED000080C87EA0E076E405C409CFA8CFC3FBA27
:10FEE00036BA24BAC1F800C04F608E60CC6007B04B
:10FEF000BDE8F08F2DE9F04F87B00D684C68D1F860
:10FF00000890CE68CDE9003203682DBA5D404368A1
:10FF100024BA5C40836899FA89F989EA0309C368BD
:10FF20005FFA84FC5FFA89F7EAB236BA5E400CF5F4
:10FF3000407CE84B07F5407702F54072F1B253F888
:10FF40002C8053F827C053F8227001F540712A0E17
:10FF500053F821E053F82210220E81EA080153F8E9
:10FF6000222082EA0C024FEA196C029253F82CC04C
:10FF70008CEA0E0C4FEA166E53F82EB08BEA070B84
:10FF8000C6F30747C6F3072606F5007607F5807720
:10FF900053F826E053F827A0C5F30746C5F3072515
:10FFA00006F5807605F5007553F8268053F8256030
:10FFB000C4F30745C4F3072404F5007405F5807500
:10FFC00053F8242003920269029C53F82570514093
:10FFD0004269C9F30745C9F30729544005F58075FF
:10FFE00009F5007984EA080282EA0E0253F82550E6
:10FFF00053F82990D0F818E0039C8CEA0E0C8CEA98
:020000041001E9
:10000000070C8CEA060CC6698BEA060B8BEA050B1B
:10001000D5B205F540758BEA040453F82560C4F3A6
:10002000074505F5807581EA0A0153F825700297A6
:100030005FFA8CF581EA090105F5407BE5B205F52B
:10004000407ECDB205F540790D0E4FEA1268C2F33D
:10005000074AC2F3072253F82550CDF80CE002F509
:1000600000720592CCF30727026A754007F5007706
:100070005540029A53F8277055406F40039A53F841
:10008000285053F82B804FEA1C6ECCF3074C0CF52C
:10009000807653F82EE004964FEA146C85EA080542
:1000A00053F82280059A53F82CC0C1F307460AF58D
:1000B000807A06F580768EEA080EC4F3072453F89A
:1000C000298053F82A9053F822A0426A04F500745C
:1000D0008CEA080C53F8268053F82440049E5540BF
:1000E00085EA0805C1F30721654001F50071846ABE
:1000F00053F8211053F826608EEA040E8EEA090E9A
:100100008EEA010EC16AEAB28CEA010C8CEA060C96
:1001100002F540728CEA0A0CC7F3074153F822A09B
:10012000CCF3074202F5807201F5807153F822206A
:1001300053F821100391CCF3072101F500710292CD
:1001400053F82180CDF810805FFA8CF101F54071F1
:100150004FEA1C6C53F8214053F82CB0C5F307410B
:1001600001F58071CEF3072253F82180C7F30721F0
:1001700001F5007102F5007253F821C053F82260B6
:10018000F9B23F0E5FFA8EF253F8277002F5407213
:1001900087EA0A0A2F0E53F8222053F82770C5F376
:1001A000072587EA020905F500724FEA1E6501F589
:1001B000407153F8257053F821106740046B8AEAA8
:1001C000040A029C8AEA040A446B89EA0409039C33
:1001D00089EA0409049C8BEA010B89EA040553F8B7
:1001E0002210846BC26BCEF3074E0EF5807E674003
:1001F0008BEA020BEAB253F82E4087EA080702F5B1
:10020000407287EA0C078BEA040B53F82240FAB2DB
:1002100002F540728BEA010B53F822E05FFA8BF291
:1002200002F540728AEA060653F82210F2B202F58D
:10023000407253F82280320E53F8222054402A0E86
:1002400053F8222082EA0E024FEA176E029253F808
:100250002EE08EEA01014FEA1B6E53F82EE08EEA83
:100260000808CBF3074ECBF3072B0BF5007C0EF5FC
:10027000807E53F82C2053F82EB00392C6F3074C1F
:10028000C6F307260CF5807C06F5007653F82C9013
:1002900053F826C0026CC5F3074606F58076544035
:1002A00053F826E0029AC7F30746C7F3072707F576
:1002B000007784EA0B0453F8277084EA070A476C36
:1002C000039C7A40876C82EA0902C5F3072506F58C
:1002D000807601E0A42F0210624005F5007581EAE6
:1002E0000704C76C53F8266053F8255088EA0701C5
:1002F00084EA0E0484EA0C047140CAF3074C694096
:100300000CF5807CCDF80CC05FFA81FC0CF5407ECA
:10031000D5B25FFA8AFC0CF5407905F540754FEAD5
:100320001A6C53F8255053F82CB0CDF810E0E7B212
:100330008BEA050B07F54077150EC1F3074653F816
:10034000277053F8255006F580767D4053F82660D7
:10035000076D02968BEA070B029F8BEA070B476D2E
:100360007D40039FC4F3072653F827704FEA1468B3
:100370004FEA116E06F50076C1F3072101F5007111
:1003800053F82660C2F3074C7D40C2F3072253F8AE
:100390002870DDF8108053F8211053F8288053F8A6
:1003A0002EE002F500724D400CF5807C53F82210CF
:1003B000826D53F82CC087EA0807CAF3072A53F85E
:1003C00029800AF5007A5740C4F30744C26D8EEACB
:1003D000080E04F5807453F82A8053F8244087EA05
:1003E0000C078EEA020CEAB202F5407287EA0807AF
:1003F0008CEA040C53F82240FAB202F540728CEAFF
:10040000010C53F822105FFA8CF202F540728BEA6D
:10041000060653F82280F2B202F5407253F822E049
:10042000320E53F8222054402A0E53F82220514015
:100430003A0E53F8222082EA08024FEA1C68029220
:1004400053F82880026E88EA0E0ECCF30748CCF3EE
:10045000072C08F580780CF5007C53F828B053F889
:100460002C80C6F3074CC6F307260CF5807C06F5F6
:10047000007653F82C9053F826C0C5F3074606F5CE
:100480008076544053F826A0029AC7F30746C7F374
:10049000072707F5007784EA0B0453F827707C40A0
:1004A000476EC5F30725794005F50075876E53F84B
:1004B000255006F580767A4053F82660C76E82EAAA
:1004C0000A0282EA0C0281EA09018EEA070C81EA3B
:1004D00008018CEA060C8CEA050C5FFA81F85FFAD9
:1004E00082FEE5B2260E08F540780EF5407E05F551
:1004F000407553F8269053F8286053F82E8053F82F
:1005000025E00D0E5FFA8CF753F8255007F540777C
:1005100085EA08054FEA126853F8277053F82880D7
:1005200088EA07074FEA1C68C2F3074A53F8288095
:10053000C2F3072202F5007288EA0E08CCF3074ED8
:1005400053F8222002920EF5807E026F53F82EB0EF
:1005500089EA06065640029AC4F3074E86EA0B065D
:100560005640CCF3072C426F0EF5807E0CF5007CD4
:1005700053F82EE053F82CC05540826FC1F3074961
:100580000AF5807AC1F3072185EA0E05574001F587
:100590000071C26F53F82AA053F8211085EA0C0CA1
:1005A00088EA020E5FFA8CF28EEA0A0E02F54072B9
:1005B000C4F3072409F580798EEA010E04F500746E
:1005C00053F8221053F8299053F82440CEF30742F1
:1005D00002F5807287EA0907674053F822200292E9
:1005E000C7F3072202F5007253F82280CDF80C8081
:1005F000FAB202F540725FFA86F853F82240C6F369
:10060000074202F5807208F5407853F82290CDF841
:100610001090CEF3072202F50072CCF3074953F88D
:1006200022505FFA8EF24FEA1E6ECDF814E04FEAC8
:10063000166EC6F3072653F82EB08BEA010B06F5AB
:1006400000714FEA1C6602F5407253F8266053F8B9
:10065000222086EA040A3C0EC7F3074753F82440D9
:1006600084EA020ED0F880408BEA040B029C8BEAED
:10067000040B039C8BEA0406D0F884408AEA040A3F
:10068000049C8AEA040AD0F8884007F580728EEA52
:100690000407DDF814E053F8284053F82EE009F57C
:1006A00080798EEA040453F829E087EA0E0753F8AC
:1006B00022E053F82120CCF3072C57400CF5007CA6
:1006C000D0F88C2053F82C108AEA050584EA020C35
:1006D000EAB202F540728CEA0E0C53F82240FAB2EC
:1006E00002F540728CEA010C53F822105FFA8CF28A
:1006F00002F5407253F82280F2B202F5407253F8CC
:1007000022E0320E53F8222054402A0E53F82220C1
:1007100051403A0E53F8222082EA08024FEA1C6840
:10072000029253F8288088EA0E08CCF3074ECCF3E7
:10073000072C0CF5007C0EF5807E53F82CA053F8A6
:100740002EB0C6F3074CC6F307260CF5807C06F5E1
:10075000007653F82C9053F826C0C5F3074606F5EB
:100760008076C5F3072505F5007553F826E053F8A4
:100770002550D0F89020C7F30746C7F3072707F5A1
:100780000077544053F82770029A84EA0B047C40A7
:10079000D0F894707940D0F8987006F580767A4059
:1007A000D0F89C7053F8266082EA0E0282EA0C02AE
:1007B00088EA070C8CEA060C8CEA050C009D81EA9D
:1007C0000901052D81EA0A0140F2EE81CDB205F55D
:1007D0004075C2F3074A53F82560D5B205F5407558
:1007E000C1F3074953F825805FFA8CF505F540758C
:1007F0000AF5807A53F8257053F82AA0E5B205F57A
:10080000407509F5807953F825E053F82990250EB5
:1008100053F825506E400D0EC1F3072153F82550B3
:1008200085EA08054FEA1268C2F3072253F82880C8
:1008300088EA07074FEA1C6802F5007253F828801F
:1008400053F82220029288EA0E08CCF3074E0EF5E8
:10085000807ED0F8A02053F82EB05640029AC4F300
:10086000074E86EA0B065640CCF3072CD0F8A4209E
:100870000EF5807E0CF5007C53F82EE053F82CC06A
:100880005540D0F8A82085EA0E05574001F50071C3
:10089000D0F8AC2053F8211085EA0C05C4F30724E6
:1008A00088EA020CEAB28CEA0A0C02F5407204F5FE
:1008B00000748CEA010C53F822E053F82440CCF386
:1008C000074287EA090702F58072674053F8224021
:1008D000C7F3072202F500724FEA166853F8229018
:1008E00053F82880FAB202F540724FEA1C6A53F8B6
:1008F0002210C6F3074202F5807288EA0E0853F808
:1009000022B0CCF3072202F500724FEA156E53F8BD
:10091000222002925FFA8CF202F540725FFA86FCA6
:10092000C6F3072606F5007653F82220039653F8FF
:100930002EE08EEA01014FEA176E0CF5407C53F869
:100940002EE053F82CC08EEA0206D0F8B02088EAD8
:100950000208D0F8B420C5F3074E5140029A0EF5B4
:10096000807E81EA0B015140D0F8B82053F82EE088
:10097000564086EA0E02039EC5F3072553F826600B
:1009800005F5007588EA0408C7F3074788EA0904F3
:1009900053F82A9007F58077724053F82560D0F815
:1009A000BC5053F8277089EA0C0C8CEA050C009DAA
:1009B0008CEA070C062D8CEA060C00F0F580CDB20F
:1009C00005F54075C2F3074A53F82560D5B205F521
:1009D0004075C1F3074953F825805FFA8CF505F59A
:1009E00040750AF5807A53F8257053F82AA0E5B2CD
:1009F00005F5407509F5807953F825E053F82990FD
:100A0000250E53F825506E400D0EC1F3072153F803
:100A1000255085EA08054FEA1268C2F3072253F809
:100A2000288088EA07074FEA1C6802F5007253F82D
:100A3000288053F82220029288EA0E08CCF3074E51
:100A40000EF5807ED0F8C02053F82EB05640029AA2
:100A5000C4F3074E86EA0B065640CCF3072CD0F8B9
:100A6000C4200EF5807E0CF5007C53F82EE053F880
:100A70002CC05540D0F8C82085EA0E05574001F536
:100A80000071D0F8CC2053F8211085EA0C05C4F38E
:100A9000072488EA020CEAB28CEA0A0C02F54072DA
:100AA00004F500748CEA010C53F822E053F824405A
:100AB000CCF3074287EA090702F58072674053F8D2
:100AC0002240C7F3072202F500724FEA166853F876
:100AD000229053F82880FAB202F540724FEA1C6A5D
:100AE00053F82210C6F3074202F5807288EA0E0816
:100AF00053F822B0CCF3072202F500724FEA156ECC
:100B000053F8222002925FFA8CF202F540725FFAEB
:100B100086FCC6F3072606F5007653F822200396D6
:100B200053F82EE08EEA01014FEA176E0CF5407C77
:100B300053F82EE053F82CC08EEA0206D0F8D020ED
:100B400088EA0208D0F8D420C5F3074E5140029A33
:100B50000EF5807E81EA0B015140D0F8D82053F881
:100B60002EE05640C7F30747C5F3072586EA0E0275
:100B700007F58077039E53F8277053F8266005F534
:100B8000007588EA040888EA090453F82A9053F8A3
:100B90002550D0F8DC3089EA0C0C8CEA030C8CEA86
:100BA000070C72408CEA050C314B250ECEB25D5D10
:100BB0009E5D46EA05660D0E5FFA8CFE5F5D13F8DA
:100BC0000EE0D5B25D5D45EA0765170EDF5D4EEAC2
:100BD000076E4FEA1C6713F80780E7B2DF5D47EA4C
:100BE0000867CCF30748CCF3072C13F8088013F8F8
:100BF0000CC046EA0846C4F30748C4F3072413F8B8
:100C0000088045EA084545EA0C2513F804C0C1F3FD
:100C10000744C1F307211C5D4EEA044444EA0C2456
:100C200013F801C0C2F30741C2F30722595C9B5C71
:100C3000009A46EA032300EB4216520147EA0141BB
:100C400082585340726885EA0200B268019D624092
:100C5000F46841EA0C211BBA2B6081EA040300BA54
:100C600012BA1BBA6860AA60EB6007B0BDE8F08FEB
:100C7000A42E0210002800F07D822DE9F04FA2F191
:100C80001005102D85B0924604D81F46D84BEB4076
:100C9000DB0704D46FF0AC0005B0BDE8F08F4FEA7D
:100CA000920808F1060389460446C0F8F420C0F80B
:100CB000F030064600F1F80B002F47D0D7F800E0DF
:100CC000D7F804C0BD68FB68C0F8F8E0CBF804C0F2
:100CD000CBF80850CBF80C3008F0AAFF04EB8808DA
:100CE000254623461A6812BA43F8042B9845F9D1D1
:100CF00049465246204608F09BFF23461A6812BA1E
:100D000043F8042B9845F9D1BAF1180F00F0E881A7
:100D1000BAF1200F00F05D81BAF1100F00F01781D9
:100D20000E9B012B1DD0002F00F0088138687968D8
:100D3000BA68FB68C4F8F800CBF80410CBF80820B8
:100D4000CBF80C30002005B0BDE8F08FC0F8F8708B
:100D5000CBF80470CBF80870CBF80C7008F068FF83
:100D6000BCE7D4F8F0309E0025D004EB03132246F4
:100D700000211068D3F800C0C2F800C018605068A5
:100D8000D3F804C0C2F804C058609068D3F808C013
:100D9000C2F808C09860D068D3F80CC0C2F80CC084
:100DA0000431D860701A814202F11002A3F11003DD
:100DB000DFD3D4F8F030012BB5D98E4B8E4ACDF865
:100DC00008B04FF0010EA3460397D5E90460F4B2D2
:100DD00004F58074A96913F8244004F540744FEABF
:100DE000166A52F82490C4B204F580740AF5807A29
:100DF00013F8244013F82AA004F5407452F82AA0EE
:100E000052F824C0CCB204F580748AEA090A13F8B7
:100E1000244004F54074C1F3074752F8244001947C
:100E2000C6F3074404F58074C6F3072606F58076FA
:100E300013F8244013F8266004F5807406F5007654
:100E400052F8248052F826608AEA080AC0F3074460
:100E50008AEA06062E6104F58074060E06F5807691
:100E6000C0F3072013F8244013F8266000F58070C3
:100E700004F5807413F8208052F8260052F82440BC
:100E800008F5007880EA0C00604052F82840604085
:100E9000686107F58077080EC1F3072100F58070BF
:100EA00001F5807113F8277013F8204013F8210022
:100EB00052F82410019C07F5807700F5007052F875
:100EC000277052F82000614079404140A961E969EA
:100ED000080E00F58070103513F82060C8B200F5D8
:100EE00080700EF1010E13F8204052F8260004F530
:100EF000407452F824406040C1F3074404F5807404
:100F0000C1F3072113F8246001F5807113F8214023
:100F100006F5807104F5007452F82110414052F832
:100F200024004140E960DBF8F0108E45FFF44DAF3E
:100F30005C46DDE902B7002F7FF4F8AEC4F8F87024
:100F4000CBF80470CBF80870CBF80C70FAE6D4E953
:100F500001CE284BDFF8A4802068E168A2461A463B
:100F60007446634608F128099446D64600E01036D8
:100F7000CAB24FEA116A0AF5807A5CF822201CF89E
:100F80002AA002F47F4242EA0A02C1F3074A0AF5A4
:100F9000007A5CF82AA00AF07F4A82EA0A02C1F3CA
:100FA000072A0AF5407A5CF82AA00AF47F0A82EA46
:100FB0000A0258F804AB82EA0A02504043405C40FF
:100FC0006140C145C6E90403C6E90641CFD1744674
:100FD000A6E6D4E9008ED4E902C122460195644612
:100FE000DFF81C90034B40467546944641E000BF35
:100FF00001010100A43F0210A42F0210A44F02100F
:10100000A04F0210C1F3074E0EF5407EC1F3072832
:1010100053F82EE053F828800EF47F0E08F47F4832
:101020004EEA080E4FEA116808F5007853F828A038
:101030005FFA81F808F580780AF07F4A13F8288073
:101040004AEA0808D6F810A08EEA0A0E8EEA080EC0
:10105000D6F81480C6F830E08EEA080ED6F818806C
:10106000C6F834E08EEA080E82EA0E02C6E90EE205
:101070002036F26959F804AF5FFA82FE4FEA12682F
:1010800008F5807853F82EE013F828800EF47F4E90
:101090004EEA080EC2F3074808F500788EEA0A0EF9
:1010A00053F8288008F07F488EEA080EC2F307281C
:1010B00008F5407853F8288008F47F088EEA080E77
:1010C00080EA0E004540DFF8B4E06C406140CE4558
:1010D000C6E90805C6E90A4194D1019D64461FE6A8
:1010E000D4E902C9264BD4F800E0606801951A469D
:1010F000A0466346DFF88CA075464C46944605E052
:10110000326962405140C6E90A21183671695AF8BD
:10111000049FCAB24FEA116E0EF5807E5CF8222061
:101120001CF82EE002F47F4242EA0E02C1F3074EA1
:101130000EF5007E82EA09025CF82EE00EF07F4E8A
:1011400082EA0E02C1F3072E0EF5407E5CF82EE017
:101150000EF47F0E82EA0E02554068400A4A434070
:101160005C405245C6E90650C6E90834C8D1019D25
:101170004446D5E56FF0AC00704700BFBC4F02108D
:10118000A43F0210A04F0210C04F021010B4019CE7
:1011900028B1F02A03D8019410BCFFF76BBD6FF0A3
:1011A000AC0010BC704700BF90B108B513460A46AA
:1011B0001946D0F8F0305B0803F1FF3CBCF1060F94
:1011C00003D8FDF7A5FF002008BD6FF0E10008BDC2
:1011D0006FF0AC00704700BF90B108B513460A46E7
:1011E0001946D0F8F0305B0803F1FF3CBCF1060F64
:1011F00003D8FEF77FFE002008BD6FF0E10008BDB8
:101200006FF0AC00704700BFF0B599B00546684676
:101210000E46174600F084FC18B10446204619B06B
:10122000F0BD32462946684600F0A2FB044628B1CC
:10123000684600F093FC204619B0F0BD3946684678
:1012400000F016FC0446F3E7C36CE94A2DE9F04FC1
:101250001A44D0E91534076DD1F800B0466D4D68D9
:10126000D1F814E0D1F81880D1F81CA0D1F8209062
:1012700063403B405A4463401344DE4A224407EB38
:1012800073632C462A4487EA06051D4075401544C1
:10129000D94A8DB032448E68019603EB35553244FD
:1012A00087EA03062E400A977E401644D34F0A9AD7
:1012B000CDF810E01744CA68029205EBF6361744E1
:1012C00083EA050232405A403A440F69CDF814804F
:1012D000BC46CB4FCDF80CC0674406EBB2221F448E
:1012E00085EA060313406B403B44C64FCDF8189087
:1012F000774402EB73632F4486EA02051D40754074
:101300003D44C14F474403EB3555374482EA030659
:101310002E4056403E44BD4FD1F83080574405EB37
:10132000F636174483EA050232405A403A44B84F31
:101330004F4406EBB2221F4485EA060313406B407C
:101340003B444F6ABC46B34FCDF81CC0674402EB28
:1013500073633D4486EA02071F4077402F448D6A3D
:10136000A5F5244E03EB375782EA030CAEF14F0E7E
:10137000B6440CEA070CCE6A8CEA020CF444B6467A
:10138000A54ECDF820E0764407EBFC3C164483EAFA
:10139000070202EA0C025A403244A04EDFF880E213
:1013A00046440CEBB2221E4487EA0C0313407B40F8
:1013B00033444E6BB64402EB736377448CEA020EFF
:1013C0000EEA030E8EEA0C0EBE44D1E90E97954943
:1013D0000994494403EB3E5E614482EA030C0CEA43
:1013E0000E0C8CEA020C8C448F49CDF82CB0394499
:1013F0000EEBFC3C114483EA0E0202EA0C025A4056
:101400000A448A490CEBB222214419448CEA0203B3
:1014100003EA0E0383EA0C03059C0B44844902EBA8
:10142000F36321448E4482EA030101EA0C01514036
:10143000089C7144DFF8FCE103EBF151A644E6445B
:1014400083EA010C0CEA020C8CEA030CF444DFF88A
:10145000E8E1079C01EBBC4CDE44964481EA0C02B7
:101460001A404A40DDF810B07244DFF8D0E10CEBCE
:101470003232DE449E448CEA02030B4083EA0C03C2
:101480007344DFF8BCE1DDF80CB002EBF363AE446B
:101490008E4482EA030101EA0C0151407144DFF8F5
:1014A000A4E103EBF151BE44E64483EA010C0CEAEB
:1014B000020C8CEA030CF444DFF88CE101EBBC4C29
:1014C000DE44964481EA0C021A404A407244DFF836
:1014D0007CE1DFF87CB10CEB3232A6449E448CEA0E
:1014E00002030B4083EA0C037344DFF868E1029CBB
:1014F00002EBF363CE448E4482EA030101EA0C015D
:1015000051407144DFF850E103EBF151A644E64449
:1015100083EA010C0CEA020C8CEA030C069CF444EE
:10152000DFF838E101EBBC4CA644964481EA0C029A
:101530001A404A407244DFF828E1019C0CEB323239
:10154000B6449E448CEA02030B4083EA0C037344C6
:10155000DFF810E102EBF363A6448E4482EA030154
:1015600001EA0C0151407144DFF8FCE0099C03EBF7
:10157000F151D644E64483EA010C0CEA020C8CEAF1
:10158000030CF44401EBBC4CC344934481EA0C02C9
:1015900002EA030E8EEA010EDE440CEB3E3E82EAC6
:1015A0000E0B049AA2F5B822A2F2BE621A445A4463
:1015B0002E4BDDF818B05B440EEB327219448CEA06
:1015C0000E035340DDF820B00B442949594402EB87
:1015D000735361448EEA020C8CEA030C8C44254957
:1015E000DDF80CB0494403EB3C4C8E4444E000BFB2
:1015F00078A46AD756B7C7E8DB702024EECEBDC109
:10160000AF0F7CF52AC68747134630A8019546FDE3
:10161000D8988069AFF7448BBED75C892211906B54
:10162000937198FD8E4379A62108B44962251EF670
:1016300040B340C0515A5E26AAC7B6E95D102FD606
:101640005314440281E6A1D8C8FBD3E7E6CDE121DB
:101650008A4C2A8DD60737C3870DD5F4ED145A4529
:1016600005E9E3A9F8A3EFFCD9026F6781F671875A
:1016700022619D6D0C38E5FD82EA030181EA0C01CF
:101680007144DFF880E2A6440CEB7121964483EAB2
:101690000C024A407244DFF870E2029CDE4401EB27
:1016A000327273448CEA010E8EEA020E9E44974B0E
:1016B000DDF82CB0534402EB7E5E9C4481EA0203C9
:1016C00083EA0E036344DFF848C2AC440EEB3343B5
:1016D000614482EA0E0C8CEA030C8C448D4931443F
:1016E00003EB7C2C11448EEA030282EA0C020A44CA
:1016F000894959440CEB32728E4483EA0C01514003
:101700007144DFF818E2A64402EB71519E448CEA62
:1017100002034B40059C7344DFF804E2A64401EB4E
:101720003343E64482EA010C8CEA030C079CF44440
:10173000DFF8F0E1A64403EB7C2C964481EA030237
:1017400082EA0C027244DFF8E0E1019CC6440CEB33
:1017500032728E4483EA0C0151407144DFF8CCE1CF
:10176000BE4402EB715173448CEA020E8EEA010E04
:101770009E446F4B234401EB3E4E9C4482EA01039E
:1017800083EA0E036344DFF8ACC1099C0EEB7323BC
:10179000DC44944463EA010282EA0E026244DFF808
:1017A00098C1DDF80CB003EBB262D4448C4462EA19
:1017B0000E0159406144DFF884C102EBB151CC44C1
:1017C000F44461EA030E8EEA020EDDF81090F44450
:1017D000DFF86CE101EB7C4CCE449E446CEA0203E2
:1017E0004B407344DFF85CE10CEBF323C6449644B2
:1017F00063EA010282EA0C02DDF808807244A5F572
:101800008015DFF844E103EBB262A5F68335654449
:10181000C64462EA0C0C8E448CEA030CF44402EBDE
:10182000BC5C6CEA030151402944484DDDF818E0E6
:10183000DDF814800CEB714125441D4461EA02037C
:1018400083EA0C032B44424D019C01EBF3237544C6
:10185000154463EA0C024A402A443E4D03EBB2624F
:101860003D4462EA01075F4065443D443A4F02EB64
:10187000B55547440F4465EA030151403944374F99
:1018800005EB7141374461EA02061F446E40344B58
:101890003E4401EBF6265B441A4466EA05034B40DE
:1018A0001344C26CDDF820B006EBB3631A44C26483
:1018B0002C4A5A44154463EA010272402A44856D59
:1018C00003EBB25215448565274D25440D4462EA69
:1018D00006015940294402EB714161EA03030A9C65
:1018E0005340426DDDF81CC00C4411441F4A416551
:1018F00062443244134404EBF324046500200DB029
:10190000BDE8F08F44EABEA4A9CFDE4B604BBBF626
:1019100070BCBFBEC67E9B28FA27A1EA8530EFD4F3
:10192000051D880439D0D4D9E599DBE6F87CA21FDF
:101930006556ACC4442229F497FF2A43A72394ABED
:1019400039A093FCC3595B6592CC0C8FD15D848523
:101950004F7EA86FE0E62CFE144301A3A111084EB0
:10196000827E53F735F23ABDBBD2D72A91D386EBAC
:101970002DE9F843002874D00C469046054600290E
:101980004DD000683F286FD86B68D3186B602CD29D
:1019900005F10C0680BBB8F13F0F55D9A8F14007FF
:1019A00027F03F0740372744334604F1400ED4F870
:1019B00000C06068A168E268DA6010347445C3F85A
:1019C00000C05860996003F11003F0D131462846F9
:1019D000FFF73AFCBC428146E6D108F03F08B8F177
:1019E000000F27D14846BDE8F883AB680133AB60F0
:1019F00005F10C060028CED0C0F14007474528BFAE
:101A0000474630443A46214608F012F92B683B44D9
:101A1000402B2B601CD03C44A8EB0708BBE702BB63
:101A20000368402B34BF4FF000096FF0830948462C
:101A3000BDE8F88339463046424608F0F9F8C5F863
:101A400000804846BDE8F88327464FF00009C6E706
:101A500031462846FFF7F8FB81460028C2D12860AE
:101A6000D9E76FF0AC09BDE76FF08309BAE700BFB3
:101A700000284AD070B50D46002943D006460446DA
:101A800056F80C3B3F2B3AD85A1C02608022F25485
:101A90000368382B26D8F018C3F13802002107F06C
:101AA0008DFDD4E901305A0F02EBC002DB00314654
:101AB0006364A2642046FFF7C7FBE16C636D226D8F
:101AC000A06D2960AB601249124BE8606A60C4E9FE
:101AD0001313114A114B0020C4E9152320606060E4
:101AE000A06070BDC3F14002F018002107F066FD50
:101AF00031462046FFF7A8FB30463822CEE76FF08C
:101B0000830070BD6FF0AC0070BD6FF0AC0070472B
:101B10000123456789ABCDEFFEDCBA9876543210CD
:101B200080B110B4094A0A4C0A49C0E913420A4A72
:101B300010BC0023C0E91512C365036043608360D5
:101B4000184670476FF0AC00704700BF89ABCDEF0F
:101B500001234567FEDCBA9876543210704700BF07
:101B6000024B1B6803B1184703F006B8AC0C002009
:101B7000024B1B6803B1184703F006B8A80C0020FD
:101B80002DE9F047A8B0309F8DF80720002800F01D
:101B90008D809A46474B039301230E468DF80B30F8
:101BA0004FF002084FF037090CAD07E0284600F06F
:101BB00039FFB8F1010F5DD04FF00108284600F061
:101BC00003FF0446002855D101220DF10B012846E0
:101BD00000F0CCFD04460028E8D19DF80B3004222B
:101BE000013303A928468DF80B3000F0BFFD0446F1
:101BF0000028DBD19DF80730042B08D001220DF11D
:101C00000701284600F0B2FD04460028CED13A462E
:101C10005146284600F0AAFD04460028C6D1319B53
:101C200013B1329B002B38D104A9284600F02AFEBC
:101C30000446284600F0F6FE002CBAD1B9F1200F78
:101C400025D90DF1100CBCE80F0030607160B26056
:101C5000F360BCE80F00B8F1010F06F120064FF069
:101C6000170946F8100C46F80C1C46F8082C46F8E4
:101C7000043CA1D104AB00211A460133AB421170E0
:101C8000FAD1201E18BF012028B0BDE8F0874A46CF
:101C900004A9304607F0CCFF8BE731991A46284655
:101CA00000F064FD0446002880D1BDE7012028B083
:101CB000BDE8F087000001B8F0B585B004460D46D8
:101CC0001646002178221F4607F078FC0B9B6367BD
:101CD0000A9B00960422CDE901732B46A5182046E5
:101CE0002946FFF74DFF10B1012005B0F0BD3723A5
:101CF000CDE90100009302462B4604F13B0120464A
:101D0000FFF73EFF0028EFD10123236005B0F0BDAF
:101D1000F0B5372793B004460D46164600213A46E3
:101D200004A807F04BFCCDE90156251D00970122C0
:101D300004A920462B46FFF723FF98BB04AEAE460E
:101D400010AFB446BCE80F00BC450EF1100E06F112
:101D500010064EF8100C4EF80C1C4EF8082C4EF8DD
:101D6000043CEED13068CEF80000B288AEF8042012
:101D7000B2798EF8062004AB0DF1470000211A4617
:101D8000013383421170FAD13723CDE90111009359
:101D900000222B4604F13B012046FFF7F1FE08B973
:101DA0000123236013B0F0BD2DE9F04FB9B00190CD
:101DB000002800F0148103680E4619BA02918C497C
:101DC0008B4200F00781012A38BF012212F01F0B5D
:101DD00018BF4FF0010B059391460BEB521B0323E9
:101DE000021D0EAD8DF8133003921446AE4600F17D
:101DF000340C20686168A268E36877460FC7103426
:101E00006445BE46F5D120683860A388BB80A379BD
:101E1000BB71BBF1000F00F0E78000270DF17008E7
:101E20000DF16F0A404600F0CFFD0446B8B14046C0
:101E300000F0F8FD2B4600211A460133534511707E
:101E4000FAD1002C52D0012616A900222B460135CA
:101E50008D421A70FAD1304639B0BDE8F08F372282
:101E60002946404600F082FC04460028DFD106A93E
:101E7000404600F007FD0446404600F0D3FD002C2C
:101E8000D8D126B1B9F1000F05D14FF000090137C3
:101E9000BB45C7D1CEE7B9F11F0F05D84A4606A901
:101EA000304607F0C5FEF0E70DF1180EBEE80F0052
:101EB00030607160B260F360BEE80F002036A9F1B7
:101EC0002009D44646F8100C46F80C1C46F8082C9D
:101ED00046F8043C01E06545D9D01CF8013D0133CA
:101EE000DBB28CF80030002BF5D0D0E70DF1700894
:101EF000404600F069FD40B1404600F093FD0126E8
:101F0000019A1368013313609EE701220DF113015A
:101F1000404600F02BFC0028EED1039937224046C2
:101F200000F024FC0028E7D12946404600F0AAFC36
:101F30000646404600F076FD002EE0D1019B03F1FD
:101F40003B010DF157020846137810F8017D3B4420
:101F50001C449542047002F1FF32C4F30F24F3D104
:101F6000019B03F11B022346039C12F8010D03445D
:101F70009BB2944213704FEA1323F6D1039F084695
:101F8000002310F8012D90F8374022441344874273
:101F90000370C3F30F23F4D1029B0593019B06AC9E
:101FA00003F13700002311F8012D14F8017D3A44A4
:101FB000134488420B70C3F30F23F4D101460398F6
:101FC00011F8012D13449BB281420B704FEA132389
:101FD000F6D195E70226304639B0BDE8F08F0126EC
:101FE000304639B0BDE8F08F01240DF16F0A21E7CA
:101FF00040420F002DE9F043A1F104084446042CAF
:1020000028BF0424B8F1000F27D0002581460646DA
:102010000F46284605EB040CECB1CC443444324660
:102020004FF0000E12F8013B1CF8011B944283EAAA
:1020300001034EEA030EF5D1BEF1000F08BF0320E5
:1020400004357C1B042C28BF0424A84506F1040693
:10205000E0D8BDE8F0830320F2E74046BDE8F08316
:1020600038B518B384680546E4B104F17800234616
:1020700000211A46013383421170FAD1631E04F124
:102080007701002413F8012F8B4244EA0204F9D1AE
:10209000A868002C18BF6FF0C60408B1FFF768FDF0
:1020A0000023AB6000232B73204638BD6FF0AC04D7
:1020B000FAE700BF30B5A1B0279D002B39D0002D25
:1020C00037D004460846194684BB289B802B3DD157
:1020D000299BCDE900230346249A02A8FFF7ECFDD3
:1020E00060B92CB1DDE9251202A8FFF711FE28B96D
:1020F0008022294602A8FFF757FEE8B14FF0FF30D3
:1021000002AB00211A460133117020AA9342F9D183
:102110000DF107030DF17F0C002213F8011F634539
:1021200042EA0102F9D18AB921B030BD259B002BCA
:10213000CBD16FF0AC00F7E78022294602A8FFF769
:1021400033FE003818BF01204042D9E74FF0FF307E
:10215000EAE700BF70B550B305460E4615480021AA
:10216000144607F079FE411C286004D06CB907F0D2
:1021700007FD204670BD1048002107F06DFE421C8F
:102180002860F3D16FF06404F3E72246314607F08C
:1021900077FE431C07D0A04208BF0024286818BF60
:1021A0006FF06804E3E728686FF06504DFE76FF01D
:1021B000AC04DEE7CC4F0210DC4F021000286DD0DB
:1021C000F0B50E46A9B0002965D015469AB1B2F512
:1021D000803F60D8077B012F044609D18068FFF754
:1021E000E3FD02280AD030B1032844D00223237330
:1021F0006FF0C60000E0002029B0F0BD00226FF0B3
:102200000103CDE90523274B019380230493202369
:102210003846029308AF302300930397224B1146B0
:10222000FFF748FF38BB21490DF11F020DF19F0E4A
:1022300012F8013F11F801CF724583EA0C0340EA1E
:102240000300F5D1B8B9242239462046FFF782FFB2
:10225000B8B924213846FFF7CDFE98B9A06880B1FF
:10226000202209A9FFF754FD60B9A0682A4631462B
:10227000FFF79AFD06E003236FF0D000237329B027
:10228000F0BD012011A900223A7001378F42FBD125
:102290000028B0D0A8E76FF0AC00ADE76FF0AC005D
:1022A000704700BF185102103851021097500210A9
:1022B0002DE9F047A8B0002800F0AC80894692468E
:1022C000044600296CD0002A14BF4FF024084FF0B8
:1022D0003408636000226FF00103A260227306934A
:1022E0008023049308AB039330230093CDE90122AC
:1022F0004A4B059211461046FFF7DCFE20BB484FC3
:102300000DF11F050DF19F0639462A4612F8013FCF
:1023100011F801CFB24283EA0C0340EA0300F5D181
:1023200090B908AB6FF00102CDE9020306923B4B76
:10233000059080220492202200920190102203F145
:102340002001FFF7B7FE38B1032323736FF0D005E8
:10235000284628B0BDE8F08715F8013F17F8012F8F
:10236000AE4283EA020340EA0300F5D10028EBD134
:102370007820FFF7F5FBA060B8B1424608A92046D7
:10238000FFF7E8FE70BB414608A8FFF733FE05469D
:10239000A06875B358B1FFF7EBFB0023A36006E01C
:1023A000002A37D14FF0340893E76FF07C0508AB73
:1023B000984400211A46013343451170FAD12DB9D2
:1023C00001232846237328B0BDE8F087032DBBD036
:1023D000012D08BF6FF0C60502232846237328B0DD
:1023E000BDE8F087A0680223237301250028D2D11D
:1023F000DDE7CDF800A0626801924B46A8F1040227
:1024000009A9FFF759FC05460028D0D0A06800288C
:10241000C1D1CCE76FF0AC059AE700BF685002105D
:10242000E74F021000231A461946FFF741BF00BFCD
:102430002DE9F04F80460C460068D8F80410D8F813
:102440000820D8F80C30CBB002AD0FC5D8F810007A
:10245000D8F81410D8F81820D8F81C300FC504F19B
:1024600040072E4620686168A268E36835460FC5BC
:102470001034BC422E46F5D1DDE918340DF1280E9A
:102480000A983AAE71461F46D1F824C0054651F865
:10249000040F4FEAF74282EA77424FEAB04382EAFA
:1024A000972283EAF013624483EAD0031A44274652
:1024B000B14205EB0204CC63E6D1AB4FDDF824C09A
:1024C000069DCDF80480DDE90706DDE90232DDE98D
:1024D000041407F5807BD7F80080DEF80090C14433
:1024E0004FEAF52888EAB51888EA7568C84486EA8C
:1024F000000909EA050989EA0609C844E04404EB31
:10250000080C4FEAB30484EA733484EAB3544444B5
:1025100043EA020803EA020908EA010848EA09084E
:102520004444DEF80490D7F8048008EB090AB2446A
:1025300085EA000606EA0C064640B2444FEAFC264D
:1025400086EABC1686EA7C66B2444FEA743686EAAE
:10255000B40686EAB45601EB0A0806EB0A09B96824
:10256000DEF8086044EA030A31440AEA020A014438
:1025700004EA03004AEA000A85EA0C0000EA0800BF
:10258000684001444FEAF82080EAB81009EB0A06D7
:1025900080EA786001444FEA763080EAB60080EA4B
:1025A000B65002EB01090844FA68DEF80C1044EA60
:1025B000060A0AEA030A0A4404EA06014AEA010A88
:1025C0008CEA080101EA090181EA0C012A4450441D
:1025D0000A444FEAF92181EAB9114FEA703581EADC
:1025E000796185EAB0050A4485EAB05503EB020A31
:1025F00015443B69DEF8102046EA000121401344EF
:1026000006EA0002114388EA090202EA0A0282EAA3
:102610000802634413444FEAFA2282EABA1282EAB9
:102620007A620D44134404EB030C4FEA753484EAD8
:10263000B50484EAB554DEF814201C447B6940EAF2
:1026400005013140134400EA0502114389EA0A02F8
:1026500002EA0C0282EA090243440C4413444FEAA2
:10266000FC2282EABC124FEA743182EA7C6281EA7F
:10267000B401134481EAB4511E44DEF81820194411
:10268000BB6945EA040808EA0008134405EA0402A5
:1026900048EA02088AEA0C0232404B4482EA0A0203
:1026A00013444FEAF62282EAB612414482EA766285
:1026B00013444FEA713282EAB10282EAB1521844FD
:1026C00002EB0308FA69DEF81C3044EA01091A44F7
:1026D00002EB0A0309EA050904EA010249EA0209D0
:1026E00008EB09028CEA060808EA000888EA0C08E8
:1026F00098444FEAF02383EAB01383EA7063984466
:102700004FEA723383EAB20383EAB2534344454447
:1027100041EA0208203708EA040801EA020948EA07
:1027200009085F450EF1200E43447FF4D4AEDDF876
:10273000048004910293CDF824C0A8F10403059409
:10274000089607900392069501A908F11C0853F812
:10275000042F51F8040F434502441A60F7D10020BA
:102760004BB0BDE8F08F00BF68510210002800F0A8
:1027700086802DE9F8430C469046002938D005465E
:10278000006E3F2861D86B6ED3186B6635D205F1A9
:102790002006002838D128F03F07274405F15C09BE
:1027A000BC4245D02146334604F1400ED1F800C06A
:1027B0004C688868CA68DA6010317145C3F800C097
:1027C0005C60986003F11003F0D10C46A8F140085A
:1027D00005F11C0353F8042F12BA99451A60F9D178
:1027E00031462846FFF724FE0028D9D0BDE8F883FB
:1027F000002A41D10020BDE8F883AB6E0133AB66FF
:1028000005F120060028C6D0C0F14007474528BF83
:10281000474621463A46304407F00AFA2B6EA8EBA9
:1028200007083C441F44402F2F6611D00020B2E718
:102830000028DBD1B8F1000FDCD0424621463046FB
:1028400007F0F6F9C5F86080D4E76FF08300CDE7B4
:1028500005F11C0305F15C0153F8042F12BA9942EB
:102860001A60F9D131462846FFF7E2FD08B928661B
:10287000DCE74FF000088EE76FF0AC00B6E76FF0D2
:10288000AC007047002800F08D802DE9F0410E4625
:10289000002900F08480036E3F2B04467CD85A1C2C
:1028A00000F120080266802208F80320036E382B0E
:1028B00054D808EB0300C3F1380204F11C0704F1FB
:1028C0005C05002106F07AFED4E919315A0F02EBBB
:1028D000C102DB006366A2663B4653F8042F12BABE
:1028E0009D421A60F9D1636EE365A36EA36541460C
:1028F0002046FFF79DFD78BB231F53F8042F12BA23
:10290000BB421A60F9D121686368A268E568F56086
:1029100031607360B26021696369A269E569316100
:1029200022497361B261F561214A21602149C4E9FC
:1029300001122149214AC4E90312214A21490023F5
:10294000C4E9051202F17452A2F52302C4E9183356
:10295000A2F69242E261A366BDE8F081C3F14002B3
:1029600008EB0300002106F029FE04F11C074023B8
:10297000236604F15C053B4653F8042F12BA9D42CE
:102980001A60F9D141462046FFF752FD0028E3D1F5
:1029900020663822404694E76FF0BF00DCE76FF016
:1029A000AC00D9E76FF0AC00704700BF67E6096A7A
:1029B00072F36E3C85AE67BB3AF54FA57F520E5160
:1029C000ABD9831F8C68059BC0B110B40D4A0E4C67
:1029D0000E49C0E900420E4A0E4CC0E902120E4AEE
:1029E0000E49C0E904420E4A10BC0023C0E9061299
:1029F000C0E91A3303664366184670476FF0AC00AF
:102A0000704700BF85AE67BB67E6096A72F36E3C2C
:102A10003AF54FA57F520E518C68059BABD9831FA9
:102A200019CDE05B38B100F170010022034601309E
:102A300088421A70FAD1704708B50346014802F07F
:102A400065FBFEE768520210002000F0D3BD00BF16
:102A5000012000F0CFBD00BF10B5002000F060FBEA
:102A6000012000F05DFB402000F05AFB104B0222D9
:102A700018684FF4E13101F055FD041E0CDB00F045
:102A8000EFF858B900F08CF8044660B9094B0A48D1
:102A90004322DA6000F0C2FA204610BD0749084818
:102AA0006F22FFF7C9FF054905487422FFF7C4FFED
:102AB0000000002000440040400D0300845202103A
:102AC000E052021000BF70474FF0FF30704700BF68
:102AD0004FF0FF30704700BF4FF0FF30704700BF2E
:102AE0004FF0FF30704700BF4FF0FF30704700BF1E
:102AF000F8B5E0B9002A19DD104D0E468F180C46C6
:102B000002E0BB420FD01C46284601F003FEC1B2D2
:102B10002170284601F000FE22780D2A04F10103FD
:102B2000EFD10A232370C6F10106A019F8BD06F003
:102B300067FE092303604FF0FF30F8BD002004401A
:102B4000F8B5431E012B21D8002A174612DD531E6B
:102B5000124E4C1ECD1814F8013F0A2B0CD00F4812
:102B600001F0DEFD0028FAD02178304601F0D4FDD6
:102B7000AC42F0D13846F8BD084801F0D1FD00283C
:102B8000FAD00D21304601F0C7FDE8E706F038FE27
:102B9000092303604FF0FF30F8BD00BF0020044060
:102BA000F8B50D4B1F68A7B100250C4C2E46D4E993
:102BB000000100F0F1FC204600F0E8FB01350028A0
:102BC00018BF6FF00706AF4204F10C04EFD1304696
:102BD000F8BD3E463046F8BDE8520210EC520210F5
:102BE0000B4B1B68834210B504460BD9094B04EB11
:102BF000440403EB840253F824005168BDE81040FC
:102C000000F0E0BC044905483B22FFF715FFEDE763
:102C1000E8520210EC5202102C53021074530210AE
:102C20000B4B1B68834210B504460BD9094B04EBD0
:102C3000440403EB840253F824005168BDE81040BB
:102C400000F0AABC044905484622FFF7F5FEEDE76F
:102C5000E8520210EC5202102C530210745302106E
:102C6000F8B50B4B1F6887B100240A4D264628464D
:102C700000F08CFB0134002818BF6FF00706BC423F
:102C800005F10C05F3D13046F8BD3E463046F8BD9F
:102C90001053021014530210474885464748804796
:102CA00080B94749474A484B9B1A03DD043BC85843
:102CB000D050FBDC4549464A00209142BCBF41F858
:102CC000040BFAE74348804743488047434880471E
:102CD000FFF7FEFFFEE7FEE7FEE7FEE7FEE7FEE7A3
:102CE000FEE7FEE7FEE7FEE7FEE7FEE7FEE7FEE7BC
:102CF000FEE7FEE7FEE7FEE7FEE7FEE7FEE7FEE7AC
:102D0000FEE7FEE7FEE7FEE7FEE7FEE7FEE7FEE79B
:102D1000FEE7FEE7FEE7FEE7FEE7FEE7FEE7FEE78B
:102D2000FEE7FEE7FEE7FEE7FEE7FEE7FEE7FEE77B
:102D3000FEE7FEE7FEE7FEE7FEE7FEE7FEE7FEE76B
:102D4000FEE7FEE7FEE7FEE7FEE7FEE7FEE7FEE75B
:102D5000FEE7FEE7FEE7FEE7FEE7FEE7FEE7FEE74B
:102D6000FEE7FEE7FEE7FEE7FEE7FEE7FEE7FEE73B
:102D7000FEE7FEE7FEE7FEE7FEE7FEE7FEE7FEE72B
:102D8000FEE7FEE7FEE7FEE7FEE7FEE7FEE7FEE71B
:102D9000FEE7FEE7FEE7FEE7FEE7FEE7FEE7FEE70B
:102DA000FEE7FEE7FEE7FEE7FEE7FEE7FEE7FEE7FB
:102DB000FEE7FEE7FEE7FEE700000220852E011099
:102DC00048C6021000000020CC0B0020000C0020A0
:102DD00068170020892E0110219B011089EB00103B
:102DE0000B4A08B50346106828B10A4903448B42D0
:102DF00007D8136008BD08480649106003448B4299
:102E0000F7D906F0FDFC0C2303604FF0FF3008BD3E
:102E1000B00C002000F00120701700204FF080431C
:102E20009A6802F46062B2F5206F20D011D9B2F531
:102E3000406F17D00F4B1049B2F5606F18BF0B46AB
:102E40004FF080420D499268C2F38212D3400B606A
:102E5000704752B1084947F23053B2F5C06F18BFFE
:102E60000B46EDE74FF40043EAE7054BE8E74FF484
:102E7000E103E5E7C068780400E1F5056817002084
:102E8000008793030020704710B50A4C0A4BA360DB
:102E90000A4801F0EDFAD4F8883043F47003C4F81E
:102EA0008830BFF34F8FBFF36F8FFFF7B7FFFFF788
:102EB000D3FD10BD00ED00E000E0001000A00240D6
:102EC00038B54FF0E02318499C691A6922F4803222
:102ED0000A601A69D2071FD46FF07F4405225C6133
:102EE0004FF080759C611A61104B114A19680023DC
:102EF000A0FB01010FF0B6FB0E4BB0FBF5F205FB9A
:102F0000120084421A600AD81A6801321A602544F5
:102F1000094B281A186038BD5D690135E4E7064B96
:102F2000201A186038BD00BFB80C002068170020B8
:102F300040420F0004000020BC0C002010B50C4CD7
:102F40000C4B22681960002A0EDC08B9002010BD65
:102F5000FFF7B6FF2368002BF8DD4FF0E02213697E
:102F600043F002031361F1E76FF0050010BD00BFED
:102F700004000020B40C0020F8B5174C2368002B87
:102F80001EDB26682EBB154B4FF0E0251B68AA6997
:102F90009A421ED8124F3B685BB16FF00F00984702
:102FA000104B3E601A682A614FF0FF332360002007
:102FB000F8BD0C4A4FF0FF3312682A612360F6E730
:102FC000074C2368002BF2D0002098470023236091
:102FD000EDE76FF00500F8BD04000020BC0C0020F8
:102FE000B40C0020B80C002010B5094C236823B1A4
:102FF0006FF00F00984700232360064A064B1068C5
:103000004FF0E0214FF0FF3208611A6010BD00BFA1
:10301000B40C0020B80C00200400002038B5184C77
:103020002268002A29DC08B9002038BDFFF748FFD4
:103030004FF0E02202E01369DB031AD42368002B6F
:10304000F9DC104B1A684FF0E0218B699342FCD8F1
:103050000D4D2B6823B16FF00F00984700232B60B4
:103060000A4B4FF0E022196811614FF0FF332360E3
:10307000DAE72368013B2360E0E76FF0050038BD25
:1030800004000020BC0C0020B40C0020B80C002070
:10309000F8B50F4E0F4BB2689A4204460D4600F148
:1030A000100707D018460C494FF4F07206F0C0FD27
:1030B0000346B060002C43F8275007DB074A61093C
:1030C000012304F01F04A34042F82130F8BD00BFE3
:1030D00000ED00E0000E002000E0001000E100E044
:1030E0003F2808D90D4A4038D168C0B20123834037
:1030F0000B43D36070471F284FF0804207D9203818
:10310000916CC0B2012383400B4393647047516AB2
:10311000012383400B435362704700BF0000084007
:103120003F2809D90E494038CB68C0B201228240FD
:1031300023EA0203CB6070471F284FF0804108D973
:1031400020388B6CC0B20122824023EA02038B64D8
:1031500070474B6A0122824023EA02034B627047A8
:103160000000084010B507280AD8DFE800F00C0975
:10317000092333475B04BDE81040364800F006B928
:103180006FF0020010BD4FF080440021A36843F4AB
:103190008023A3604FF47A70FFF7D0FE03E0FFF7BF
:1031A000EBFE063052D1A3685901F8D5FFF71CFF9A
:1031B000002010BD00214FF47A70FFF7BFFE4FF0E2
:1031C000804403E0FFF7D8FE06303FD1A3689A00A1
:1031D000ECD4F7E74FF080440021A36843F40023C8
:1031E000A3604FF47A70FFF7A9FE03E0FFF7C4FE77
:1031F00006302BD1A3681B01F8D5D7E74FF08044E8
:103200000021A36843F48013A3604FF47A70FFF7A2
:1032100095FE03E0FFF7B0FE063017D1A368D80093
:10322000C4D4F7E74FF080440021A36843F400338F
:10323000A3604FF47A70FFF781FE03E0FFF79CFE76
:10324000063003D1A3689B01B0D4F7E76FF0090003
:1032500010BD00BFD85302103F2809D940380F498C
:10326000C0B2012282408A608B681A42FCD170474A
:103270001F280AD92038C0B201224FF08041824075
:103280004A644B6C1A42FCD1704701224FF08041D6
:1032900082404A604B681A42FCD1704700000840E7
:1032A000820733D100F17043B3F5002F84460A46FC
:1032B00029D3A0F18453B3F5804F27D220F00F0318
:1032C000A3F18453B3F5804F20D243F6F07303404B
:1032D00003F5002300B50F4883B0614619F048F9A3
:1032E0004FF08042136843F04003136013685B069D
:1032F000FCD44FF08052084B126801921B68019376
:1033000003B05DF804FB054B0340E3E76FF00200F8
:10331000704700BF0090024000200010F0FF07003F
:1033200019F01EB919F020B900F000B810F440737C
:1033300006D0054A11684A6A134300204B62704761
:103340006FF00200704700BF08000020C10710B5F1
:10335000044608D4A2070BD463070ED42046BDE868
:10336000104001F0BDBB0020FFF7DAFEA207F3D545
:103370000120FFF7D5FE6307F0D54020FFF7D0FE10
:103380002046BDE8104001F0ABBB00BF70B57F4BDD
:1033900005689D42044637D003F580539D4220D0F6
:1033A00003F5EE2303F580639D427FD07848281A09
:1033B000B0FA80F04009C000FFF7C8FF744B2268E4
:1033C0009A4215D06268217A284600F04BF9D0B9AC
:1033D000637A042B00F2D780DFE803F05A4C3E2FCB
:1033E00018000220FFF7B2FF694B22689A42E9D128
:1033F000237A012B00F0BB80022B00F0A580002B6C
:1034000056D06FF0100070BD0120D5E72B6E6268BA
:1034100023EA02032B666B6E13436B66D5F8B83054
:1034200023EA0203C5F8B830594BA17A9D4239D03E
:103430002846BDE8704000F0FFB82B6E6268134369
:103440002B666B6E23EA02036B66D5F8B83023EA6D
:103450000203C5F8B830E7E72B6E626823EA02037F
:103460002B666B6E13436B66D5F8B8301343C5F803
:10347000B830D9E72B6E626813432B666B6E23EA74
:1034800002036B66D5F8B8301343C5F8B830CBE704
:103490002B6E626823EA02032B666B6E23EA02033B
:1034A0006B66C1E70029ACD0002070BD042083E723
:1034B0006368384958001A010E6A00F0020002F0F1
:1034C0002002024326EA02020A628A68C3F340032A
:1034D000034322EA03038B60637A042B91D8DFE86D
:1034E00003F0261B031B030062682A49D300086A05
:1034F00003F0100302F00106334320EA03030B62DA
:1035000056019300086A03F0040306F040063343B3
:1035100020EA03030B6287E71E4962680E6AD30044
:1035200002F0010003F0100330430343E7E7626851
:10353000184893005101066A03F0040301F04001AA
:103540000B43334303626FE76368124958001A0163
:103550000E6A00F0020002F02002024332430A62C7
:103560008A68C3F34003034313438B60B4E7636883
:10357000084958001A010E6A00F0020002F0200209
:1035800002433243A0E76FF0020070BD00800040AC
:1035900000060840006C0040084A904201D000F04C
:1035A00043B8074810B4046ACA0001F0010121437E
:1035B00002F010030B4310BC036270470006084082
:1035C000006C0040094A904201D000F02FB810B4BE
:1035D000074CCA00206A02F0100201F0010142EA21
:1035E000010320EA0303236210BC70470006084071
:1035F000006C004001F086BA034A904201D000F00E
:1036000017B8024AD16170470006084000680040C0
:10361000034B984201D000F00DB8024BD8697047B7
:103620000006084000680040C161704701627047B1
:1036300081647047006C704759B1012906D1D0F8F8
:10364000C0301343C0F8C030002070476FF0020054
:103650007047D0F8C03023EA0203C0F8C030002021
:10366000704700BF036B13430363426005292CD8E6
:10367000DFE801F00A12191F2503C0F888208267CD
:10368000C266826000207047426142600267C26782
:10369000C0F8882000207047026142600267C2675C
:1036A000C0F88820EEE7C0F88820C2670267826011
:1036B000E8E7C0F88820C267C2668260E2E7C0F827
:1036C0008820826702678260DCE76FF00200704743
:1036D00000F0FAB808B5114B98420DD0104B984243
:1036E00011D0104B984215D13820FFF7F9FC342047
:1036F000FFF7B2FD002008BD0D20FFF7F1FC102000
:10370000FFF7AAFDF6E71C20FFF7EAFC2020FFF7F1
:10371000A3FDEFE76FF0010008BD00BF00D001403E
:1037200000E0014000F00140C0B370B504460D4612
:103730001646FFF7CFFF1B4B9C4212D01A4B9C4200
:103740001CD01A4B9C4226D13820FFF7E9FC1848C0
:10375000FFF71CFE324629462046BDE8704000F0C7
:103760004DB80D20FFF7DCFC1248FFF70FFE324684
:1037700029462046BDE8704000F040B81C20FFF705
:10378000CFFC0D48FFF702FE324629462046BDE831
:10379000704000F033B86FF0010070BD4FF0FF30A3
:1037A000704700BF00D0014000E0014000F0014040
:1037B000B4530210CC530210C053021000F09EB854
:1037C00000F0ECB800F0FAB800F00CB900F018B94D
:1037D00000F034B900F04AB900F050B900F056B921
:1037E00000F058B900F0C2B900F090BA00F09EBAEB
:1037F000014B196800F008BE0C000020F8B5002845
:1038000057D00F46102115460446FFF7E9FF06463C
:1038100008B13046F8BD236843F001032360204619
:10382000FFF7D8FF2046FFF7D7FF02212046FFF71A
:10383000DDFF06212046FFF7D7FFDFB123681E4AD0
:1038400043F00203944223602FD01C4B9C420FD0C4
:1038500003F580539C4214BF4FF0FF340224184BF1
:1038600004EB440403EBC40301225A603046F8BD64
:103870000124F4E73A4629462046FFF729FF0E4B7C
:103880009C4209D003F580539C4210D00D4FBC429E
:1038900014BF4FF0FF370227094B07EB470103EB3B
:1038A000C10300225A603046F8BD3446D7E70127ED
:1038B000F2E74FF0FF36ACE700D0014000E00140F6
:1038C0000810002000F001400346A0B16AB9B1F52C
:1038D000806F0DD27F29C26484BF4FF40042C2645E
:1038E000C26C0A430020DA6470476FF01000704722
:1038F0006FF0020070474FF0FF30704700283FD054
:1039000010B4214AA1F574236FF410742344934238
:1039100013D31E4B99422FD81D4B1B685B08B3FB7A
:10392000F1F35B089A1EB2F5FF7F03F1FF3323D852
:10393000436310BC8363FFF743BF154B154C1B68F3
:103940005B08B3FBF1F14A00A4FB01C14908A4FBE9
:103950000242013952080F2902F1FF320CDC0F2A12
:103960000ADC090289B2D2B20A43C26302680A4978
:1039700042F400420260D2E76FF0020010BC7047D0
:103980004FF0FF30704700BF009F240040E133003C
:1039900068170020ABAAAAAA801A06000649436B42
:1039A000826B0868C2F30802C3F30803134440089B
:1039B000B0FBF3F0704700BF6817002070B1036BD5
:1039C00013F0010F036B04D143F0010303630020E4
:1039D000704743F002030363002070474FF0FF304D
:1039E000704700BF48B1036B43F004030363036BEC
:1039F00013F00403FBD1184670474FF0FF307047B7
:103A0000C8B1C1B1AAB100B5002301F1FF3E07E082
:103A1000C16A01335FFA81FC9A420EF803C005D0F7
:103A200041688907F4D518465DF804FB10465DF837
:103A300004FB104670474FF0FF30704798B191B1CA
:103A40007AB1002301F1FF3C06E001339A421CF8F1
:103A50000310C9B2C16204D04168C906F5D5184641
:103A60007047104670474FF0FF307047C36943F00E
:103A70008003C361C3691B06FCD47047436A43F0EB
:103A800080034362436A1B06FCD470478160026175
:103A9000704700BF002865D0036843F001032DE99B
:103AA000F04103600768036843F480630E460446F0
:103AB00007F480670360002943D000252BE0FFF75F
:103AC000ADFA236823F0800323600A20FFF7A6FAEB
